:100000000C9405020C944C020C944C020C944C027F
:100010000C944C020C944C020C944C020C944C0228
:100020000C944C020C944C020C94FC190C94B819CE
:100030000C9420200C944C020C944C020C944C0216
:100040000C944C020C944C020C944C020C944C02F8
:100050000C944C020C94FC1F0C944C020C944C021B
:100060000C944C020C944C020C944C020C944C02D8
:100070000C944C020C944C020C944C020C944C02C8
:100080000C944C020C944C020C944C020C944C02B8
:100090000C944C020C944C020C944C020C944C02A8
:1000A0000C944C020C944C020C944C020501090275
:1000B000A10185020901A100050919012905150001
:1000C00025019505750181029501750381010501E1
:1000D000093009311581257F950275088106093897
:1000E0001581257F950175088106050C0A380215D2
:1000F00081257F950175088106C0C005010980A191
:1001000001850319012AB700150126B7009501756D
:10011000108100C0050C0901A101850419012AA064
:1001200002150126A002950175108100C005010984
:1001300006A1018505050719E029E71500250195A8
:1001400008750181020507190029EF1500250195A1
:10015000F0750181020508190129059505750191C0
:1001600002950175039101C00660FF0961A10109B3
:1001700062150026FF0095207508810209631500AD
:1001800026FF00952075089102C005010906A1010E
:10019000050719E029E71500250195087501810279
:1001A0009501750881010507190029FF150026FF33
:1001B0000095067508810005081901290595057542
:1001C000019102950175039101C00000000000003B
:1001D000000000000000000000000000000000001F
:1001E00000000000000000000000000000007E0F82
:1001F00000D4FFFFFFC700000078000000000000EF
:1002000000002A2B28000000000000000000000071
:10021000000000000029000000002C1E34202122D4
:1002200024342627252E362D3738271E1F2021223D
:10023000232425263333362E37381F0405060708B6
:10024000090A0B0C0D0E0F101112131415161718A6
:10025000191A1B1C1D2F3130232D350405060708E4
:10026000090A0B0C0D0E0F10111213141516171886
:10027000191A1B1C1D2F3130354C0000A8002B0013
:100280002A004700000053005400550056004A0061
:100290005F006000610000004B005C005D005E00DC
:1002A00057004E0059005A005B0000004D0000004E
:1002B0006200630058000000000000000000000021
:1002C000000000000000000000000000000000002E
:1002D000000000000000000000000000000000001E
:1002E000000000000000000000000000000000000E
:1002F00000000000000000000000000000000000FE
:1003000000000000000000000000000000000000ED
:1003100000000000000000000000000000000000DD
:1003200000000000000000000000000000000000CD
:1003300000000000000000000000000000000000BD
:1003400000000000000000000000000000000000AD
:10035000000000000000000000000000000000009D
:100360000000000000000000000009025B00030123
:1003700000A0FA0904000001030101000921110194
:1003800000012240000705810308000A090401005A
:1003900002030000000921110100012222000705CB
:1003A0008203200001070503032000010904020065
:1003B000010300000009211101000122BC00070512
:1003C000840320000A120110010000000876675023
:1003D0005301000102030104033000000012035323
:1003E0000070006100630063005000610064000061
:1003F0000012034700760061006C00630068006330
:100400000061000000040309040011241FBECFEFA7
:10041000DAE0DEBFCDBF04B603FE27C080915502EF
:1004200090915602A0915702B09158028730904B9C
:10043000A740B04BD1F41092550210925602109280
:1004400057021092580214BE84B7877F84BF0FB63C
:10045000F894A89580916000886180936000109264
:1004600060000FBEE0E0F8E3099511E0A0E0B1E024
:10047000EEEEF1E402C005900D92AA36B107D9F76D
:1004800022E0AAE6B1E001C01D92A535B207E1F76E
:100490000E94D31A0C94BE200C940000E8EDF0E00A
:1004A00080818E7F80831092E2001092DA00109299
:1004B000E100A0EEB0E08C9181608C9380818F7719
:1004C000808319BCA7EDB0E08C918E7F8C938081E6
:1004D0008F7E808310921F0208952091E400309156
:1004E000E50095E6A9012091EC00822F817020FFA4
:1004F00006C08091E80080FF06C080E0089520914A
:10050000E80022FD1AC080914402882389F08530DA
:1005100089F08091EB0085FD0FC02091E4003091BF
:10052000E50042175307F9F29150E1F684E008958F
:1005300082E0089583E0089581E00895EF92FF92AC
:100540000F931F93CF937C018B010E946D02C82FE4
:10055000811117C08091E80085FD0BC08091E800F3
:100560008E778093E8000E946D02882399F3C82F4C
:1005700008C0F70181917F018093F10001501109BA
:1005800049F78C2FCF911F910F91FF90EF90089515
:100590008091460287FF13C08091E80082FF06C069
:1005A0008091E8008B778093E80004C0809144023A
:1005B0008111F2CF0895809144028823D9F380916C
:1005C000E80080FFF8CF8091E8008E77ECCF982F7D
:1005D0009093E900242F762F50E0891731F0709125
:1005E000EC002091ED005091F00021FD07C09F5FCD
:1005F000973071F78093E90081E008953091EB0026
:100600003E7F3093EB003091ED003D7F3093ED0065
:100610003091EB0031603093EB007093EC0020934D
:10062000ED005093F0002091EE0027FDE0CF80E038
:100630000895CF92DF92EF92FF920F931F93CF9383
:10064000DF93C8EDD0E088818F7E8883E7EDF0E00E
:1006500080818160808384E082BF81E080931F027B
:1006600088818E7F888302EE10E0F801108210925C
:10067000DA0081EEC82ED12CF601108288818F77A6
:10068000888388818068888388818F7D888319BC6E
:1006900010924402109245021092430210924202BC
:1006A00090EEE92EF12CF70180818B7F8083888189
:1006B0008160888342E060E080E00E94E702F6010A
:1006C00080818E7F8083F80180818160808380813A
:1006D00088608083F70180818E7F8083888180613C
:1006E0008883DF91CF911F910F91FF90EF90DF9062
:1006F000CF900895FC0180914C0290914D02861795
:100700009707A0F06115710529F49091E8009E7794
:100710009093E80090E06115710551F4911108C0C3
:100720008091E80082FF34C080E00895BC01F2CFE0
:10073000809144028823C1F18530C1F18091E800A5
:1007400083FD30C08091E80082FDEACF8091E8000F
:1007500080FFE1CF8091F3002091F200382F6115E6
:10076000710519F02830310558F091E02830310535
:1007700009F090E02091E8002E772093E800CBCF9D
:1007800081918093F100615071092F5F3F4FE7CF56
:1007900080914402882341F0853041F08091E80047
:1007A00083FFBECF81E0089582E0089583E008953D
:1007B00080E008958091210208959C014FB7F8943C
:1007C00080911B0290911C02A0911D02B0911E020B
:1007D0004FBF821B930B08952FB7F89480911B0293
:1007E00090911C02A0911D02B0911E022FBF08958E
:1007F00020910A012223C9F02091F60127FF15C09C
:10080000E62FE695E695E695EE31D8F4E80FF92F58
:10081000F11D677021E030E001C0220F6A95EAF710
:1008200020958281282322830895FC013296089620
:100830002191621303C0DF0111971C92E817F90799
:10084000B9F7089520910A012223C1F02091F60101
:1008500027FF14C0E62FE695E695E695EE31F8F40D
:10086000E80FF92FF11D677021E030E001C0220F81
:100870006A95EAF78281822B82830895FC01329681
:100880002FEF30E04191641751F02F3F19F44111DF
:1008900001C0232F3F5F3630A9F72F3F09F4089599
:1008A000820F911D27FD9A95FC0162830895809126
:1008B000E70181111092E70108958091E60190917E
:1008C000E501892B9091E401892B80936C01909133
:1008D000E7019923A1F0892B80936C0180910A0193
:1008E000882341F18091F60187FF24C08EE1EEE676
:1008F000F1E090E0815000F591110E945704E091E1
:10090000F801F091F9013097E1F080910A01882314
:1009100059F08091F60187FF07C080916C018093A8
:100920006D0185E080936C010280F381E02D8CE6FF
:1009300091E0099486E0DBCF21912223D9F29F5FD9
:10094000D9CF0895E92FEE0FEE0F9E0F890F982F44
:10095000977086958695869525E0829FF0011124F3
:10096000E153FE4F50E040E080E0219130E0092E5D
:1009700002C0369527950A94E2F721703327042E9A
:1009800001C0220F0A94EAF7822B4F5F5F4F453078
:10099000510559F70895E92FEE0FEE0F9E0F890FBD
:1009A000982F977041E001C0440F9A95EAF7869519
:1009B0008695869595E0899FF0011124E153FE4FBD
:1009C00030E020E070E05191DF011197CB01022E61
:1009D00002C0969587950A94E2F7817081958527E4
:1009E000842385278C932F5F3F4F2530310559F79E
:1009F00008958091CE0190919D01981301C00895B2
:100A00008F5F8770FACF882341F080959091E50140
:100A100089238093E5010C945D040895882339F0BF
:100A20009091E501982B9093E5010C945D04089555
:100A3000882341F080959091E60189238093E60117
:100A40000C945D040895882339F09091E601982B69
:100A50009093E6010C945D040895209191013091EA
:100A600092012817390771F09093920180939101B8
:100A7000E091F801F091F901309721F00084F185BF
:100A8000E02D0994089520918F013091900128174D
:100A9000390771F09093900180938F01E091F801F4
:100AA000F091F901309721F00680F781E02D09944B
:100AB0000895E091F801F091F901309721F001904B
:100AC000F081E02D099480E008950E94EC039C01E0
:100AD0009091090280910A02982B21F0309306022E
:100AE0002093050290910B0280910C02982B21F02B
:100AF0003093030220930202E091F801F091F90192
:100B0000309749F082E0809307020480F581E02D60
:100B100087E092E00994089590E080E00E94430508
:100B200090E080E00E942D051092E5011092E40112
:100B30000E945D0486E0E7E0F2E0DF011D928A9505
:100B4000E9F71092040210920102109296010C949F
:100B50006505609351027093520280935302909303
:100B600054020C948C050F931F9360915102709165
:100B7000520280915302909154028B019C010670A5
:100B8000112722273327063011052105310529F4C5
:100B900068601F910F910C94A905677FFACF0F939E
:100BA0001F9341E050E060E070E004C0440F551F27
:100BB000661F771F8A95D2F7CB01BA0160957095B1
:100BC000809590950091510210915202209153020C
:100BD0003091540260237123822393231F910F913C
:100BE0000C94A9059091E301809589238093E301FA
:100BF000282F277071F4282F082E000C330B921722
:100C0000130639F08595859585950E94CF0510923C
:100C1000E30108950F931F9341E050E060E070E01E
:100C200004C0440F551F661F771F8A95D2F7809125
:100C3000510290915202A0915302B09154028A0144
:100C40009B01082B192B2A2B3B2BC901B8011F91A3
:100C50000F910C94A9056093E8017093E9018093CA
:100C6000EA019093EB010C948C0590910902803F6E
:100C700059F480910A0287FF0DC010920A02911167
:100C80000BC01092040208C0813F81F480910A02D7
:100C900018169CF3992381F080910B0290910C021D
:100CA000892B09F064C0109201020895823F49F433
:100CB00097FFF0CF1092090280910A028111ECCFC8
:100CC000E0CF833F19F41916ACF3E4CF20910B0267
:100CD000893F29F41216F4F610920B02DBCF8A3FFB
:100CE00019F427FFD7CFF8CF20910C028B3F29F4BE
:100CF00027FFD0CF10920C02CDCF8C3F19F41216E3
:100D0000CCF3C8CF843F31F4809108028E7F80936A
:100D10000802C0CF853F21F4809108028D7FF7CF74
:100D2000863F21F4809108028B7FF1CF873F21F429
:100D300080910802877FEBCF883F21F480910802E1
:100D40008F7EE5CF8D3F31F4809196018E7F809329
:100D50009601A0CF8E3F21F4809196018D7FF7CF31
:100D60008F3F09F097CF809196018B7FF0CF089548
:100D70008823B1F19CEF980F913A38F4682F8CE6F4
:100D800091E00E94F8030C945D0490E2980F983073
:100D900088F4877021E030E0A90102C0440F551F9C
:100DA0008A95E2F7CA0180959091E60189238093A4
:100DB000E601E9CF9BE5980F933020F490E080E0C6
:100DC0000C94430598E5980F973120F490E080E06B
:100DD0000C942D05803F20F00E9435060C9465058B
:100DE00008958091960180FD16C081FD16C082FD98
:100DF00016C0809101028823A1F0883280F428E097
:100E0000829FC001112468E270E00E944720862F73
:100E1000672B39F0089582E0089584E0089588E012
:100E2000089581E008958091960180FD14C081FDB0
:100E300014C082FD16C080910402882381F08431A1
:100E400080F422E3829FC001112464E170E00E94DB
:100E50004720862F08958CE0089589E1089585E064
:100E6000089582E30895803F31F40E94130781952D
:100E700080930A020895813F19F40E941307F8CF66
:100E8000823F31F40E9413078195809309020895EF
:100E9000833F19F40E941307F8CF893F29F40E9479
:100EA000F10680930B0208958A3F21F40E94F10617
:100EB0008195F7CF8B3F31F40E94F10681958093A5
:100EC0000C0208958C3F19F40E94F106F8CF843F7C
:100ED00031F4809108028160809308020895853F73
:100EE00021F4809108028260F7CF863F21F480913F
:100EF00008028460F1CF873F21F480910802886066
:100F0000EBCF883F21F4809108028061E5CF8D3FCF
:100F100031F48091960181608093960108958E3F0F
:100F200021F4809196018260F7CF8F3FB9F78091CD
:100F300096018460F1CFCF93C82F882309F46FC046
:100F40008CEF8C0F813AC0F580910A01882311F152
:100F50008091F60187FF1EC0EC2FE695E695E69599
:100F6000F0E0E459FE4F828190E04C2F477021E081
:100F700030E002C0220F331F4A95E2F78223932309
:100F8000892B91F06C2F8CE691E00E94F8030E946F
:100F90005D040AC0EEE6F1E084E791E02191C2171A
:100FA00089F38E179F07D1F76C2F8CE691E00E9492
:100FB0002204CF910C945D0480E28C0F883068F499
:100FC000C77021E030E001C0220FCA95EAF7809196
:100FD000E601822B8093E601ECCFEBE5EC0FE330EA
:100FE00040F4F0E0E55FFE4F808190E0CF910C94FB
:100FF0004305E8E5EC0FE73150F4F0E0EE0FFF1F9A
:10100000E25FFE4F80819181CF910C942D05C03F0E
:1010100030F08C2F0E943307CF910C946505CF914F
:101020000895F894E82FE295EF70F0E031A1282FB1
:101030002F7081E090E001C0880F2A95EAF7982F81
:101040009095932391A392A1892B82A378940895DC
:101050009091F60192FF06C0282F28712830F9F4EC
:10106000877F846093FF06C0282F28712831F1F410
:10107000877E84612091F70120FF06C0382F3871E8
:101080003830D9F4877F816021FF06C0282F28716E
:101090002831D1F4877E816194FD877E0895282FC1
:1010A00024712430F9F68B7F8860DCCF282F2471DF
:1010B000243101F78B7E8861DDCF382F31713130DB
:1010C00019F78E7F8860E0CF282F2171213121F719
:1010D0008E7E8861E1CFCF93DF939C013A952115F5
:1010E0003F4168F5EC01CC27D170DC01AA27B27032
:1010F000AC01442754709C012227387094FF11C022
:1011000080E1CD2B09F480E0AB2B09F08062452B08
:1011100009F08064232B09F08068FB01DF91CF91F7
:10112000099481E0CD2B09F480E0AB2B09F08260BB
:10113000452B09F08460232B81F38860EECFDF918B
:10114000CF910895CF93DF93EC010E94B806CE01B2
:10115000805E9109089720F063E075E0209711F414
:1011600068E175E0CE01DF91CF910C946B08CF93CD
:10117000DF93EC01805E9109089720F06EE075E046
:10118000209711F463E275E0CE010E946B088C2F6A
:10119000DF91CF910C949B07CF9384E090E00E9465
:1011A0007C20C82F81E290E00E947C20982F8C2F19
:1011B000CF9108950F931F93CF93DF93843030F531
:1011C000663020F5453010F5C42FD0E0CC0FDD1F80
:1011D0002AE0629FC00DD11D11243CE3839FC00D06
:1011E000D11D1124CE0186960E947C20082F10E08C
:1011F000102F0027CE0187960E947C209801282B73
:10120000C901DF91CF911F910F91089590E080E087
:10121000F8CF462F843038F4763028F4653018F44F
:10122000672F0C94DA0890E080E00895CF93DF9365
:101230000E940909EC0182389105A9F1D8F58133A2
:10124000910509F496C048F58932910509F48AC0E0
:101250008A9709F495C0C11521E5D20708F0BCC0F2
:10126000C11530E5D30708F014C1C83ED10508F018
:101270009CC0C03ED10560F5C83AD10508F087C0D2
:10128000C53AD10508F0FDC0C130D10509F120975C
:10129000F9F0C430D105E0F440C08533910509F47C
:1012A0005AC0C997C1F68091F601837089F0C0EEEB
:1012B000D0E00EC0833E910599F170F4803E910517
:1012C00001F1823E910539F68091F60182FD21C03F
:1012D000CE01DF91CF910895863E910561F1873E61
:1012E000910571F1843E910509F0B5CF8091F70128
:1012F00081FFEECF8091F601C7EED0E084FD0DC0F6
:10130000E7CF8091F60180FD12C19091F70190FF27
:10131000DFCFC3EED0E084FFDBCFD0E0C0E0D8CF9A
:101320008091F60182FD06C19091F70190FDBFCF3B
:1013300084FFCECFF2CF8091F60183FDDDCFC8CF01
:101340008091F60183FDF9C09091F70191FFF0CFF4
:10135000C4EED0E0BDCF8091F60185FFB9CFC9E2E0
:10136000D0E0B6CF8091F60185FFB2CFC5E3D0E0E3
:10137000AFCF8091F60186FFABCFCAE2D0E0A8CF15
:101380008091F60186FFA4CFC1E3D0E0A1CFCF3B8F
:10139000D10518F6C85AD0E0CC0FDD1FC25FDE4F72
:1013A0000990D881C02DD46493CFC11540E2D407F1
:1013B00058F4C11581E0D80708F08ACFC03FD105A5
:1013C00008F4ABCFD06584CFC11590E4D90708F4F9
:1013D000A4CFDF70D06A7CCFC11525E5D20700F518
:1013E000C11534E5D30708F08AC0C11543E5D40719
:1013F00008F071C0C11582E5D80708F467C0CE01B6
:101400008370992721E030E002C0220F331F8A95B4
:10141000E2F7C695C69580E2C89FE001112452C04C
:10142000C11599E5D907A8F4C11528E5D20708F038
:101430006BC0C11536E5D30708F06FCF8C2F0E9423
:101440002808C82FD0E0DC2FCC27CC27DF71D06252
:101450003FCFC1154AE5D40708F45BC0CE019056D2
:101460008115904208F059CF8D2F8F710E94280866
:1014700090E0982F882788279F719C012C2BE901E9
:10148000E6CFC55AD0E0C55FDE4FC881D0E0D0645A
:101490001FCFCE01E4E096958795EA95E1F783703A
:1014A0002C2F26952695237040E2249F900111242D
:1014B000382B8C2F8370C1E0D0E002C0CC0FDD1F31
:1014C0008A95E2F7C22BD32BDC6802CFDC2FCC2726
:1014D000C16FD06AFDCECE018370992721E030E044
:1014E00002C0220F331F8A95E2F7C695C69590E297
:1014F000C99FE0011124C22BD32BDA68E9CEDC2F7F
:10150000CC27C46FD06AE4CEDC2FCC27C06FD06A62
:10151000DFCE8C2F8F700E94280834E0D695C795B7
:101520003A95E1F7CF709C2FEC01D069D1CEC9E399
:10153000D0E0CECEC2EED0E0CBCEC6EED0E0C8CE6C
:10154000BF92CF92DF92EF92FF920F931F93CF93B0
:10155000DF938C01C0905102D0905202E090530270
:10156000F09054028091E8019091E901A091EA0184
:10157000B091EB01C82AD92AEA2AFB2ACFE1D0E0B0
:10158000BC2ED701C6010C2E04C0B695A795979521
:1015900087950A94D2F780FD0EC0219788F7B12C69
:1015A0008B2DDF91CF911F910F91FF90EF90DF90E6
:1015B000CF90BF900895B8018C2F0E941609019713
:1015C00061F3EECFCF93DF93EC010E94A00ABE013E
:1015D000DF91CF910C9416090E94E20A292F2F70F7
:1015E00092959F7092509E3078F4E92FF0E0E0548D
:1015F000FF4D0C945B20803F19F020F4883E20F4CE
:1016000081E00895843FE1F380E00895883EC0F3CF
:10161000813FD1F7F5CF822F8695869586950895DF
:10162000CF93DF93C6E1D1E060E0CE010E948A2033
:101630002196C11584E0D807B9F7DF91CF910895BD
:101640001F93CF93DF93122F8430F8F46630E8F4C1
:101650004530D8F4C42FD0E0CC0FDD1F9AE0699F4D
:10166000C00DD11D11249CE3899FC00DD11D1124F3
:10167000632FCE0186960E948A20612FCE01879625
:10168000DF91CF911F910C948A20DF91CF911F9110
:101690000895AF92BF92CF92DF92EF92FF921F9385
:1016A000CF93DF938AE7C82E82E0D82ED0E0760170
:1016B000C0E014C0F50125913491412F6C2F8D2F7E
:1016C0000E94200B82E0A80EB11C1F5F153091F71D
:1016D0008AE0E80EF11CCF5FC63019F0570110E028
:1016E000E9CFDF5F8CE3C80ED11CD43001F7DF9166
:1016F000CF911F91FF90EF90DF90CF90BF90AF9070
:101700000895CF93DF9300D00F92CDB7DEB79091BD
:101710004402943011F589837B836A839093E900B6
:101720008FEF9091E800815095FD06C095ED9A9558
:10173000F1F700008111F5CF8091E80085FF0DC021
:1017400050E040E063E070E0CE0101960E949E020E
:101750008091E8008E778093E8000F900F900F90B3
:10176000DF91CF910895BC0184E00C94810BBC0102
:1017700083E00C94810B9C0184E08093E9009FEF4F
:101780008091E800915085FD06C085ED8A95F1F7BE
:1017900000009111F5CF8091E80085FF0CC050E06A
:1017A00040E066E070E0C9010E949E028091E8007E
:1017B0008E778093E8000895CF93DF93EC018091BA
:1017C0000A018823B1F18091F60187FF32C060E2FF
:1017D00084E08093E9008FEF9091E800815095FDBF
:1017E00006C095ED9A95F1F700008111F5CF809133
:1017F000E80085FF1BC080910A0170E050E040E0E6
:10180000811104C050E040E068E070E0CE010E9429
:101810009E028091E8008E778093E80080E2FE01CE
:10182000A2E2B2E001900D928A95E1F7DF91CF91AB
:10183000089568E081E0CDCF81E08093E00080E210
:101840008093D8001092C9008FE19EE40197F1F7D0
:1018500000C0000087E090EBDC018093550290937C
:101860005602A0935702B093580288E19CE00FB64D
:10187000F894A895809360000FBE90936000FFCF0E
:101880001F93CF93DF93182FD0E0C0E0893311F47A
:10189000C0E5D0E0812F0E949B07209731F4812F73
:1018A000DF91CF911F910C94B8068FE99FE00197CB
:1018B000F1F700C000002197F0CF0F931F93CF9353
:1018C000DF93C62FD42F022FFC0182818823A1F041
:1018D000609350020E94EC0390934F0280934E025B
:1018E000C77081E001C0880FCA95EAF7DF91CF91F8
:1018F0001F910F910C94230580915002681335C0FD
:1019000080914E0290914F020E94DD03883C910528
:1019100060F510E21D0FCD17B9F080E28C0F883012
:1019200040F4C77081E001C0880FCA95EAF70E94B1
:101930001805183048F481E09D2F977001C0880F7A
:101940009A95EAF70E942305802F0E94400C1830D8
:1019500098F4D77081E001C0880FDA95EAF7DF913B
:10196000CF911F910F910C941805C77081E001C0B1
:10197000880FCA95EAF7F3CFDF91CF911F910F91AE
:101980000895BF92CF92DF92EF92FF920F931F9331
:10199000CF93DF938CE3E82E81E0F82EC0EFD1E007
:1019A000C12CD12C01E010E0F70181917F01F89466
:1019B000E82FE295EF70F0E021A18F70A80102C03E
:1019C000440F551F8A95E2F7CA01922F982B91A3D5
:1019D00092A18095892382A3789400C0E2E4F1E08B
:1019E00030E020E0B12C4191A42FA295AF70B0E07F
:1019F00090968C9190E04F7002C0959587954A958E
:101A0000E2F780FD50C0802F022E01C0880F0A949B
:101A1000EAF7B82A2F5F3F4F2530310521F7F7014C
:101A2000319780810E94110855E0C51619F080EAAF
:101A30008A95F1F78881B816C1F1B88281E0D82A79
:101A4000C3942196E6E0CE12AFCFDD2081F181E094
:101A500080938E010E94EC0390938D0180938C0102
:101A600080918C0190918D010E94DD03069718F101
:101A70008091F001809315028091F101809316020C
:101A80008091F201809317028091F30180931802F4
:101A90008091F401809319028091F50180931A02DC
:101AA00010928E0108C080E0B4CF80E0C8CF809152
:101AB0008E018111D5CF8D2DDF91CF911F910F9187
:101AC000FF90EF90DF90CF90BF900895AF92BF92BC
:101AD000CF92DF92EF92FF920F931F93CF93DF93FA
:101AE000EC018AE0A82E2881222309F48CC0213041
:101AF000C9F599818A81913021F422960E94400C87
:101B000005C0923029F422960E949B072196EBCFC4
:101B1000933021F422960E94B806F8CF943011F049
:101B20002196F4CF229630E020E0AE014F5F5F4F68
:101B30008053990B8A30910550F02150310930F3D0
:101B40008FE99FE00197F1F700C00000F6CFA29E59
:101B5000B001A39E700D11249C01260F371F8981AF
:101B6000EA01E3CFE22FF0E0E650FE4FB490822F7F
:101B700086958695869590E0FC01E651FE4FE490AF
:101B80002770F12C022E02C0F594E7940A94E2F734
:101B900031E0E322FF24FC01E652FE4FC490D12C39
:101BA000022E02C0D594C7940A94E2F731E0C32212
:101BB000DD24FC01E653FE4F049110E002C01595B0
:101BC00007952A95E2F701701127E114F10419F045
:101BD00081EE0E949B07C114D10419F086EE0E9489
:101BE0009B078B2D0E94400CCD2819F086EE0E9499
:101BF000B806EF2819F081EE0E94B806012B09F40F
:101C000085CF8CE27BCFDF91CF911F910F91FF9019
:101C1000EF90DF90CF90BF90AF9008956BEE7EEF86
:101C200090E080E00E94A82060E082E090E00E94C6
:101C30008A2060E083E090E00E948A201092E80110
:101C40001092E9011092EA011092EB0160E084E049
:101C500090E00E948A2060E081E290E00E948A2069
:101C600060E085E090E00E948A2060E086E090E0FD
:101C70000E948A206FEF87E090E00E948A2040E077
:101C800050E0BA0188E090E00E949C2060E08DE086
:101C900090E00E948A2040E050E0BA0188E190E0A4
:101CA0000E949C2060E087E190E00E948A2040E052
:101CB00050E0BA018CE190E00E949C2060E080E25C
:101CC00090E00E948A2040E050E0BA0188E190E074
:101CD0000E949C2040E050E0BA018FE090E00E941A
:101CE0009C2040E050E0BA0183E190E00C949C20FD
:101CF0001092E60180910A01EEE6F1E0882359F0A6
:101D00008091F60187FF07C08EE1DF011D928A9561
:101D1000E9F70C948C0586E0F8CF1F93CF93DF93FF
:101D2000CDB7DEB7AA970FB6F894DEBF0FBECDBF12
:101D300086E492E02091F100DC012D93CD01B2E028
:101D40008E349B07B9F780914702833009F471C044
:101D5000B8F4813009F448C0823009F4B2C08091EF
:101D6000E80083FF3AC180914602909147029A3081
:101D700008F033C1E92FF0E0E253FF4D0C945B20F3
:101D80008A3009F48DC08B3009F470C0893039F77E
:101D900080914602813219F780914A0290914B025C
:101DA000009711F00297D9F68091E800877F809321
:101DB000E8008091E80082FF37C09091F3008091A5
:101DC000F200029729F48091F1008B7F813021F499
:101DD0008091F100809321028091E8008B778093BD
:101DE000E8000E94C802BBCF80914602813A09F008
:101DF000B6CF8091E800877F8093E80080914A0207
:101E000090914B02892B61F460E282E292E070E0F3
:101E10000E947A038091E8008B778093E8009FCF3F
:101E200060E090E080E0F3CF809144028111C1CF67
:101E300096CF80914602813A09F091CF80914A0273
:101E400090914B02892B09F08ACF8091E800877F1F
:101E50008093E8008091E80080FFFCCF80910A0128
:101E60008093F1008091E8008E77B9CF809146028F
:101E7000813209F074CF80914A0290914B02892BF4
:101E800009F06DCF8091E800877F8093E8000E9481
:101E9000C8028091480280930A010E94780E5FCFA9
:101EA00080914602813209F05ACF8091E800877F05
:101EB0008093E8000E94C80280914902809320022A
:101EC0004ECF80914602813A09F049CF8091E800D7
:101ED000877F8093E8008091E80080FFFCCF8091AD
:101EE0002002BECF803899F0823809F076C0809108
:101EF0004A028F70873008F070C08093E9008091AB
:101F0000EB0085FB882780F91092E90006C08091DC
:101F1000420290914302911182609091E800977F74
:101F20009093E8008093F1001092F1008091E80016
:101F30008E77C0C1882309F4ADC1823009F04DC04D
:101F4000809148028111B1C180914A028F702FEFB8
:101F5000280F263008F041C08093E9002091EB0063
:101F600020FFA3C1933031F48091EB008062809315
:101F7000EB009BC19091EB0090619093EB0021E00E
:101F800030E001C0220F8A95EAF72093EA00109210
:101F9000EA008091EB008860EACF81111EC01091A9
:101FA00048021F778091E3008078812B8093E300C3
:101FB0008091E800877F8093E8000E94C8028091AA
:101FC000E80080FFFCCF8091E30080688093E3000D
:101FD00082E0111183E0809344028091E80083FF46
:101FE0000AC08091E800877F8093E8008091EB0031
:101FF00080628093EB00AA960FB6F894DEBF0FBE06
:10200000CDBFDF91CF911F9108958058823028F77E
:1020100020914802309149022C3DE3E03E07A1F5B2
:1020200083E08A838AE289834FB7F894DE011396AE
:1020300020E03EE051E2E32FF0E050935700E491BE
:1020400020FF03C0E295EF703F5FEF708E2F90E0AE
:10205000EA30C0F0C7968D939D932F5F243159F7D6
:102060004FBF8091E800877F8093E8006AE270E0CC
:10207000CE0101960E947A038091E8008B778093CD
:10208000E800ABCFC096E7CF80914A0290914B0217
:10209000432F55274330510509F44AC078F54130A4
:1020A000510509F485C08BE590E0EAE6F3E04230A3
:1020B000510509F092CF2091E800277F2093E80096
:1020C00020914C0230914D028217930708F49C0135
:1020D00040E02115310509F070C041116EC08091BA
:1020E000E80082FDC9CF80914402882329F285301F
:1020F00019F28091E80083FFF2CFBECF4132510543
:1021000009F447C04232510509F067CF8330910589
:1021100008F063CFFC01EE0FFF1FE25AFE4F019063
:10212000F081E02D855A9E4FDC018C9190E01DC01E
:10213000332721303105E9F02115310579F02230BE
:102140003105F9F02330310509F047CFE7EDF3E031
:10215000E4918E2F90E0E7EDF3E007C0E5E0F4E0D6
:10216000E4918E2F90E0E5E0F4E0009709F435CF9C
:10217000A2CFE1EFF3E0E4918E2F90E0E1EFF3E006
:10218000F4CFEDEDF3E0E4918E2F90E0EDEDF3E090
:10219000ECCF8330910508F020CF880F991FFC0108
:1021A000EC59FE4F0190F081E02D89E090E083CF63
:1021B00082E190E0E5ECF3E07ECF80914402882359
:1021C00009F45ACF853009F457CF8091E80083FD98
:1021D00053CF8091E80082FD82CF8091E80080FF9C
:1021E00078CF9091F3008091F2002115310519F01C
:1021F0008830910550F041E0089709F040E0809167
:10220000E8008E778093E80064CF44914093F1001A
:102210003196215031090196E8CF803809F0DDCEA2
:102220008091E800877F8093E80080914502809349
:10223000F1007CCE8111D1CE10914802123008F00D
:10224000CCCE8091E800877F8093E8001093450210
:102250000E94C802112311F084E005C08091E300C0
:1022600087FDFACF81E08093440242E061EC81E097
:102270000E94E70242E261EC84E00E94E70242E24F
:1022800061EC82E00E94E70242E260EC83E00E949F
:10229000E702A3CE80914802813009F09ECE81E012
:1022A000933009F080E0809343021092E90080911E
:1022B000E800877F8093E8000E94C8028ECE4F928C
:1022C0005F926F927F928F929F92AF92BF92CF92C6
:1022D000DF92EF92FF920F931F93CF93DF9300D083
:1022E00000D00F92CDB7DEB77C01FC0183819481D1
:1022F000892B31F08081918189238F3F09F060C55E
:102300000F900F900F900F900F90DF91CF911F9132
:102310000F91FF90EF90DF90CF90BF90AF909F9084
:102320008F907F906F905F904F9008950E94A00AC9
:10233000182F682F89819A810E94CB0469817A8144
:10234000812F0E9409098C01F7018281882309F4F9
:102350002BC5C80182519F45409708F04CC48FEFB0
:1023600093E00E947C206EEED62ED00E06E111E0A6
:102370008823C9F08091E301877011F2F70182810F
:10238000882309F4BDCF82E00E94F205B9CF011580
:10239000F4E01F0779F3C8010E947C20811101C07D
:1023A000DA940F5F1F4FD110F2CF19821A821B826D
:1023B0001C82CC24CA9448012FEF821A920AC801C9
:1023C0000E947C2089831A828823A1F2813009F03F
:1023D00047C0580132E0A30EB11CC4010E947C200A
:1023E000982E8A83882331F2C5010E947C20D82E42
:1023F0008FEF890D833068F4580143E0A40EB11CBF
:10240000DB82DD2021F0CE0101960E94660D850160
:10241000D2CF54E09512FBCF580184E0A80EB11C36
:10242000C80103960E947C20DD2009F4A3CF8823F5
:1024300009F4A0CF8150990BC89E9001C99E300D20
:102440001124ED2DE150FF0BCF01820F931F019757
:10245000F0F2EFE9FFE03197F1F700C00000F7CFAD
:10246000CE0101960E94660D5401D1CF81E00E94F9
:102470000A060E94B3057ECF81E00E94CF05F9CF06
:1024800082E0F5CF82EE0E949B07FFC388E193E0D4
:102490000E94B70888E193E00E94A208F6C382EE8A
:1024A0000E949B0787E50E94400CEFC386EE0E94C6
:1024B000400C88E1F8CFE6E0CE1AD10807C482EEDE
:1024C0000E94B8061FC48CE20E94400C80919401C7
:1024D000882309F417C489E30E94400C13C488E2DE
:1024E000FBCF033F3CE5130739F1A0F4083D5CE561
:1024F0001507F1F0093D8CE5180751F1073D9CE502
:10250000190709F003C426E241EE61EEC7010E94FB
:102510005D0C30CF053FECE51E07B1F088F0063FBB
:102520002CE5120709F0F2C327E245EE66EEEECF86
:1025300027E245EE65EEEACF26E241EE60EEE6CF19
:1025400027E245EE64EEE2CF26E241EE62EEDECF18
:1025500028E241E0EFCF8091F601806106303CE552
:10256000130709F489C08091F601886007301C4583
:1025700008F482C08091F60180627EC08091F601ED
:102580008D7F0C305CE5150709F476C070F48091FE
:10259000F6018C600A309CE5190709F46DC008F457
:1025A0007AC08091F6018E7F67C08091F601877FA7
:1025B0000E30FCE51F0709F45FC08091F6018B7FA8
:1025C0000F301C4508F458C08091F6018F7E54C02E
:1025D0000B3F3CE5130709F456C030F503315CE5C9
:1025E000150709F46AC078F401319CE5190709F46C
:1025F00060C002311C4509F0C7C30E94780E80916B
:10260000F6018F7739C00531FCE51F0709F45DC07D
:1026100008F471C08091F70181600A3F1C4509F000
:10262000B3C38093F701B0C30F3F4CE5140709F41F
:1026300048C070F40D3F8CE5180799F18091F701BF
:102640008E7F0E3F1C4568F38091F7018360E9CFD0
:102650000130EDE51E0709F457C008F442C060E000
:1026600002301D4509F090C38EE090E00E948A2060
:102670008BC38091F60181608093F60185C38091C0
:10268000F6018460F9CF8091F7018260CACF809112
:10269000F6018064F1CF0E94780E8091F601806887
:1026A000EBCF8091F7018D7FBCCF8091F6018F7DBC
:1026B000E3CF8091F6018F7BDFCF8091F601837F9E
:1026C000DBCF8091F7018C7FACCF8091F60182FB4C
:1026D000992790F921E0922790FB82F990FB83F9EA
:1026E000CBCF8091F701982F909591708E7F892B99
:1026F00090FB81F996CF0E94780E9091F601892F78
:1027000097FB87F98058B8CF61E0AECF06313CE542
:10271000130709F073C38091E6018A7A91E009F406
:1027200090E09093950169E2811165E38CE691E078
:102730000E9422040E945D041DCE0E94780E4FEF7D
:1027400054E38CE0415050408040E1F700C000006D
:102750000E941C0C0E940E0E0DCEC8010E94A20405
:10276000D82E63C3212F2F70A22E107F19F0A294B0
:1027700090EFA922DD20C9F0AA2069F080E2800F45
:10278000883010F081100BC08091E601A82AA09239
:10279000E6010E945D04802F0E949B0718C0809173
:1027A000E501A82AA092E501F4CF802F0E94B80687
:1027B000AA2069F0A094005E083010F0811028C0B3
:1027C0008091E601A822A092E6010E945D042B2DD3
:1027D0002850330B2430310510F40E945905CC20C9
:1027E00009F48ECD8091E30180FD8ACDF70112823C
:1027F0008595859585950E940A06C7010E945F11FF
:102800008091E3018595859585950E94CF0578CDCA
:102810008091E501A822A092E501D7CF312F3F702A
:10282000932E107F103219F0929480EF9822882016
:1028300071F041E0841661F1DD20B9F1AA2071F157
:10284000F701858180FFA7CF8F70858327C0DD20AA
:1028500091F09091E701892F8929A11003C00E946E
:102860002305B5CF51E0A512FACF981709F4AFCFE1
:102870008093E701ACCFA11006C00E945704892DB8
:102880000E941805A4CF81E0A81609F4A0CFF5CFC7
:10289000DD2031F095E09A1508F499CF892DDFCF2E
:1028A000E4E0EA1508F493CFEACFAA2041F3F9E374
:1028B0008F1209C02FEF37EE43E0215030404040E7
:1028C000E1F700C00000802F0E94B80680CF812F62
:1028D00086958695837061F0813009F078CFC801C4
:1028E0009370D11002C090E080E00E942D056FCF60
:1028F000C8019370D11002C090E080E00E944305AF
:1029000066CF802FDD2039F00E9433070E946505D5
:102910000E9465055CCF0E943506FACF812F837037
:1029200009F066C0D11053CF802F829586958770AD
:10293000880F880F602F6F70462E512C712C612CE0
:10294000082E04C0440C551C661C771C0A94D2F750
:1029500040E050E0BA0104FF0FC04FE050E060E0FB
:1029600070E004C0440F551F661F771F8A95D2F789
:102970004095509560957095812F869586958370CA
:10298000823019F1D8F40091E8011091E901209109
:10299000EA013091EB01813069F04429552966291B
:1029A0007729CB01BA0160237123822393230E94EC
:1029B0002B060DCF402A512A622A732ACB01BA0175
:1029C0006429752986299729F2CF44295529662932
:1029D00077290091E8011091E9012091EA013091F5
:1029E000EB01CB01BA016027712782279327DFCF44
:1029F0008695DD2011F0812F8170882309F4E7CEC0
:102A0000802F829586958770880F880F602F6F7052
:102A1000462E512C712C612C082E04C0440C551CE0
:102A2000661C771C0A94D2F740E050E0BA0104FF1C
:102A30000FC04FE050E060E070E004C0440F551F4D
:102A4000661F771F8A95D2F74095509560957095CF
:102A5000812F869586958370823019F1D8F4009184
:102A60005102109152022091530230915402813050
:102A700069F04429552966297729CB01BA016023D9
:102A80007123822393230E94A905A1CE402A512AB3
:102A9000622A732ACB01BA016429752986299729EC
:102AA000F2CF4429552966297729009151021091C6
:102AB00052022091530230915402CB01BA01602797
:102AC000712782279327DFCF1F70DD2029F0812F08
:102AD0000E940A06802FC3CE802F0E941805812FE6
:102AE0000E94CF0574CE802F52EF851609F450C096
:102AF000581578F090EF891619F1E1EF8E1609F468
:102B00003FC0DD2009F467C0A11045CE812F8F7131
:102B10003CC0F3EF8F1609F440C024EF8212F1CFCE
:102B2000DD2009F44DC01F71812F0E940A0658E074
:102B3000159FC001112483608093E301812F25C07C
:102B4000DD20C9F034E03A1508F441CE1F7161E090
:102B500070E080E090E004C0660F771F881F991F27
:102B60001A95D2F70091510210915202209153020E
:102B700030915402A4CF45E04A1508F428CEE6CFA0
:102B8000812F8F71DD2009F4ABCF0E940A061FCE82
:102B9000812F8F71DD20C9F3A3CF60E070E0CB01FE
:102BA000DD2009F470CF1F7161E070E080E090E0FB
:102BB00004C0660F771F881F991F1A95D2F763CF3D
:102BC00081E00E94F20581E08A1508F000CE82E0E3
:102BD0000E94F205FCCDAA2059F0893309F073CE8A
:102BE0009FEFE7EEF3E09150E040F040E1F769CE6F
:102BF000812F8F7175CF0031FFE51F0709F436CCA7
:102C000001312FE5120709F43BCCC801815E9C45D8
:102C1000059740F46FE1600F6093EC018CE090E069
:102C20000E948A2017FF5DCCF7018281882309F476
:102C30006DC0E091F801F091F90180E0309721F04A
:102C40000190F081E02D0995869581708093940123
:102C50009091EC01913029F4882319F089E30E94C6
:102C6000400C8091E601809393011092E6018091DF
:102C7000EC01813009F40ACC882309F403CC8230BA
:102C800009F40DCC843009F411CC8FE39CE9019751
:102C9000F1F700C000004801E89497F85CE0A52E29
:102CA000B12CC4010A2C02C0969587950A94E2F7CC
:102CB0008F7047E2C42ED12C882341F0C82ED12C2E
:102CC0008A3008F0F8CB9DE1C90ED11CC6010E94E4
:102CD000B708C6010E94A208F4E0AF1AB1082CEFB1
:102CE000A2162FEFB206E9F68091EC01813009F4CB
:102CF000EACB882309F4E3CB823009F4E0CB8430BB
:102D000009F4EDCB809193018093E601F701828174
:102D1000882309F466C0109250020230FCE51F07B8
:102D200008F4F4CC06312CE5120738F098012A5F3C
:102D30003C452930310508F0E9CC0E94CC0890933D
:102D4000F7018093F60100313CE5130709F4ADCC9F
:102D500008F03ECC08305CE5150709F498CC08F083
:102D60000DCC04309CE5190709F489CC08F0F3CBAD
:102D70000230FCE51F0709F47CCC8091F6018260EB
:102D800003301C4509F478CC6091F6011091F701ED
:102D900084E090E00E948A20612F81E290E00E940E
:102DA0008A200E94780EE6CA00313FE5130709F435
:102DB00063CB01314FE5140709F034CF82E05DCBDE
:102DC00085E0DE01119601900D928A95E1F7F701F9
:102DD000228189819A812111A9CA0E94A204182FF7
:102DE000ADCA06311C4599F48091950169E28111C3
:102DF00065E38CE691E00E94F8039CCC01152CE57C
:102E0000120709F49ACC0E3D1C4509F4A3CCF70136
:102E100000811181882309F4A0CCC8010E94A00A76
:102E2000D82E682FC8010E94CB04B8018D2D0E94B6
:102E300016098C01882EF701D280A580A2943FE06C
:102E4000A3228091E3018770A1F0CD2CDD2091F0C9
:102E5000812F807F803421F080E2800F883048F01D
:102E600082E00E94F2058091E3018770CC24C39434
:102E70008111C12CB12EB2942FE0B222FBE0FB15E0
:102E800008F4A5CCEB2DF0E0E852FF4D0C945B204C
:102E90001F93CF93DF9380919C01807FA9F4809151
:102EA0009901882389F08091CE01D0919D01609194
:102EB000970170919801A0919A01B0919B01C62F42
:102EC000C72316E0D81304C0DF91CF911F91089556
:102ED00090E0109711F0CF3F19F401968770F2CF70
:102EE000189F9001199F300D1124F901E256FE4FF1
:102EF00041814713F2CF40814613EFCF4281411108
:102F0000ECCF438154814A1B5B0B483C510528F7A9
:102F100080919C018F70806180939C01F901ED5537
:102F2000FE4F80818F708061808387E991E00E94ED
:102F30005F11DF91CF911F910C94F904AF92BF9272
:102F4000CF92DF92EF92FF920F931F93CF93DF9375
:102F5000CDB7DEB761970FB6F894DEBF0FBECDBF19
:102F60008C0185E0F801DE011D9601900D928A9595
:102F7000E1F7F80180819181E28027E9A22E21E02A
:102F8000B22E60919A0170919B016115710509F44F
:102F90003EC13091970140919801232F24232F3F68
:102FA00009F435C1C380D480F0909901F601E61B85
:102FB000F70BFF2009F4FBC020919C01522F507F9A
:102FC000E83CF10508F0BBC0511178C0FE2C491354
:102FD00021C038131FC0E1101DC02F702061209345
:102FE0009C01C5010E945F1180919C01F8018583BD
:102FF0008F2D61960FB6F894DEBF0FBECDBFDF9167
:10300000CF911F910F91FF90EF90DF90CF90BF90E5
:10301000AF900895CD2829F0282F29232F3F09F0BC
:1030200014C120E0F22FF170DF2E20FF3DC020916F
:10303000CE0140919D0156E0241315C08D879E87D7
:103040008D859E850E94E20A292F22952F702230BD
:10305000F8F0243020F59F70F9F0F8019581907F09
:10306000D9F4D12C1FC030E0529FF001539FF00DD6
:103070001124E256FE4F6181961306C060818613CB
:1030800003C06281E61210C02F5F3F4F2770D4CF7C
:103090009F7011F0882329F3805E883010F3C801F7
:1030A0000E945F11FD2CA4CFEE2009F4A1CF8091E6
:1030B0009C01816080939C01F12C9ACF491312C02E
:1030C000381310C0E1100EC0F8012583C8010E941A
:1030D0005F1186E0F801A7E9B1E001900D928A95B1
:1030E000E1F786CF8D879E878D859E850E94EC0AAD
:1030F000882309F1EE20F9F080919C01803270F074
:10310000209197013091980138872F831986DB86AB
:10311000CA868C87CE0107960E945F1186E0F8016F
:10312000A7E9B1E001900D928A95E1F70E94481756
:10313000FF24F3945DCFC8010E945F11F9CF5111B4
:103140000AC087E991E00E945F1186E0F5011192C3
:103150008A95E9F7B1CF49130FC038130DC0E110BC
:103160000BC0F8012583C8010E945F1186E0F501BC
:1031700011928A95E9F73CCF8D879E878D859E8534
:103180000E94EC0A8823B9F2EE20A9F280919C01FA
:10319000803220F220919701309198013A8329835F
:1031A0001B82DD82CC828E83CE010196B5CFE83CB6
:1031B000F105E0F6FE2CEE2009F4BDCF491316C050
:1031C000381314C080919C0180FD83CF982F907F8D
:1031D00009F47FCFF8018583903F09F477CF982FCA
:1031E000907F905F8F70892B858370CF8D879E87AE
:1031F0008D859E850E94EC0A811190CF80919C0163
:10320000816080939C01C8010E945F11F1CEEE2085
:1032100009F491CF8D879E878D859E850E94EC0A4B
:10322000F82E882309F487CF86E0F801A7E9B1E0FA
:1032300001900D928A95E1F7809197019091980104
:103240000E94E20A0E944817D3CE21E02E25EACE42
:103250001F93CF93DF93CDB7DEB767970FB6F89480
:10326000DEBF0FBECDBF342F4B8B252F5C8B6D8BFC
:103270007E8B8F8B8E899F8961111092E5011A8A4E
:10328000198A3D872E876F87998B888B86E0FE0190
:103290003D96DE01179601900D928A95E1F7CE01D9
:1032A00007960E949E17882389F016E08091CE0130
:1032B00090919D01891349C067960FB6F894DEBFBF
:1032C0000FBECDBFDF91CF911F91089586E0FE0123
:1032D0003796DE01119601900D928A95E1F78A8565
:1032E0009B85892B11F38F81988589238F3FE9F284
:1032F00020919D0130E0C901019687709927409186
:10330000CE014817190671F40E94780E10929D01A3
:103310001092CE0186E0E7E9F1E0DF011D928A9587
:10332000E9F7C3CF96E0929FD001939FB00D11248F
:10333000A256BE4FFE01319601900D929A95E1F78B
:1033400080939D010E94F904B0CF819FC001112498
:1033500082569E4F0E949E17882309F4ADCF80911C
:10336000CE0190E00196877099278093CE019ECF81
:103370001F920F920FB60F9211242F933F934F93EA
:103380005F936F937F938F939F93AF93BF93CF93ED
:10339000DF93EF93FF93D091E900DF708091EC0011
:1033A000C82FC17080FDC0E81092E9008091F00044
:1033B000877F8093F00078940E948D0E1092E90030
:1033C0008091F00088608093F000CD2BCF70C09387
:1033D000E900FF91EF91DF91CF91BF91AF919F9164
:1033E0008F917F916F915F914F913F912F910F90AE
:1033F0000FBE0F901F9018951F920F920FB60F924D
:1034000011242F933F934F935F936F937F938F93E9
:103410009F93AF93BF93EF93FF938091E10082FF5F
:1034200009C08091E20082FF05C08091E1008B7F9E
:103430008093E1008091DA0080FF24C08091D80061
:1034400080FF20C08091DA008E7F8093DA00809127
:10345000D90080FF9BC080E189BD82E189BD09B4AC
:1034600000FEFDCF81E08093440280911F02811114
:1034700009C00E944E020E9419038091E2008460FC
:103480008093E2008091E10080FF17C08091E2000C
:1034900080FF13C08091E2008E7F8093E2008091D4
:1034A000E20080618093E2008091D8008062809386
:1034B000D80019BC85E0809344028091E10084FF2C
:1034C00029C08091E20084FF25C080E189BD82E1AE
:1034D00089BD89B5982F917080FFFBCF8091D8006E
:1034E0008F7D8093D8008091E1008F7E8093E100F2
:1034F0008091E2008F7E8093E2008091E200816003
:103500008093E20080914502882309F445C084E05D
:10351000809344028091E10083FF27C08091E20004
:1035200083FF23C08091E100877F8093E10082E0E8
:1035300080934402109245028091E1008E7F809337
:10354000E1008091E2008E7F8093E2008091E200B2
:1035500080618093E20042E060E080E00E94E70248
:103560008091F00088608093F000FF91EF91BF910F
:10357000AF919F918F917F916F915F914F913F910B
:103580002F910F900FBE0F901F90189519BC10929D
:10359000440210921F0276CF8091E30087FD93E0F2
:1035A00090934402B7CFCDB7DEB7AB970FB6F89480
:1035B000DEBF0FBECDBF84B7877F84BF0FB6F89440
:1035C000A8958091600088618093600010926000EF
:1035D0000FBE80E890E00FB6F8948093610090935E
:1035E00061000FBE85B7806885BF85B7806885BFDD
:1035F00088ED93E090936B0180936A010E944E02E4
:103600000E9419038091E20084608093E200789424
:10361000809144028823A1F01091E9001F709091DD
:10362000EC00892F817090FD80E8182B1092E90042
:103630008091E80083FD0E948D0E1F701093E900B9
:1036400082E084BD93E095BD9AEF97BD80936E00B4
:1036500086EF0E94110887EF0E94110881E30E9403
:10366000110883E30E94110882E30E94110886E397
:103670000E94110886E60E94110887E90E9411083D
:1036800084E30E94110885E30E94110886EC0E94E1
:103690001108E0EFF1E0A5E1B2E011921D9221E006
:1036A000E63FF207D1F70E94C10C8FE39CE9019736
:1036B000F1F700C000000E94C10C8091150280FF4C
:1036C00017C06FEF82E290E00E948A206FEF83E2E2
:1036D00090E00E948A206FEF84E290E00E948A20AE
:1036E0006FEF7FEF90E080E00E94A8200E941C0C0A
:1036F00090E080E00E9484208B3E9E4F11F00E945B
:103700000E0E8CE090E00E947C2090E0B0E0A0E003
:103710008093EC019093ED01A093EE01B093EF0143
:1037200082E290E00E947C20813209F039C483E279
:1037300090E00E947C20843009F032C484E290E062
:103740000E947C20863109F02BC490E080E00E942A
:1037500084208B3E9E4F11F00E940E0E82E090E07E
:103760000E947C2080930E020E94CC089093F70167
:103770008093F60183E090E00E947C20682F70E047
:1037800090E080E00E942B066BE571E0EFEF8E2E5B
:10379000E1E09E2E27E531E0E9E5F1E041E050E08F
:1037A0001191812F82958F7090E0DC019196FC90B1
:1037B00091971F70E12E6A0101C0CC0C1A95EAF7AF
:1037C0000C2D00950F2191960C93919792961C9138
:1037D00092971C2992961C93D901FD909D010F2D63
:1037E00002950F7010E0D8019196BC90BF2DBF706C
:1037F000FB2E6A0101C0CC0CBA95EAF7DC2CD09400
:10380000DB20D8019196DC9291979296DC9092976A
:10381000DC289296DC92DC0190968C9190E002C0BC
:1038200095958795EA94E2F78170D80190960C916E
:1038300010E002C015950795FA94E2F790E000FDBC
:1038400092E0892BD4018D934D016E177F0709F00B
:10385000A7CF80E091E09093F9018093F80158E1BF
:10386000452E512C85E192E0B6E0B80FBBA78091C0
:10387000440200E112E1853009F4F8C10E94C10C54
:10388000882359F08FB7F89440911B0250911C0285
:1038900060911D0270911E028FBFEFE0F2E0A5E182
:1038A000B2E010E000E0302F8D919191981709F46B
:1038B000ECC1292F282790E0FF24F394422F4F21B9
:1038C00009F4DEC199A33AA38F2191E009F490E0B5
:1038D0009BA30E94EC038160782F9DA38CA349A138
:1038E0005AA16BA18DA10E942819F801E15FFD4F3B
:1038F0008081F826F0828DEFE82E81E0F82E0BEF24
:1039000011E097E5A92E91E0B92E29E5822E21E05C
:10391000922E3FEFC32E31E0D32E312C212C44E0E8
:10392000642E712CD601ED916D01EE0FEE0FD401D6
:103930002D914D01A22FA295AF70B0E090968C9181
:1039400090E02F7002C0959587952A95E2F78170D7
:103950009927D5014D915D01A42FA295AF70B0E0DC
:1039600090962C9130E04F7002C0359527954A957E
:10397000E2F7A9014170552720FF02C042E050E064
:10398000842BE82BD6011197EC93EF70F0E0E95B04
:10399000FE4F8081F7019081890F808320E0843081
:1039A00054F0D8018C918F5F8C938AEA311089EFA3
:1039B0000E94400C21E0F70180818D3F54F4D80132
:1039C0008C9181508C9389EA31108AEF0E94400CCF
:1039D00021E0F7018081082E000C990BB3010E94B1
:1039E0004720D7018D937D01222A0F5F1F4FB1E041
:1039F0003B1262C1222059F08FB7F89440911B020C
:103A000050911C0260911D0270911E028FBF86E0D2
:103A1000E7E0F2E0DE01119601900D928A95E1F760
:103A2000F0900902E0900A0210910B0200910C0242
:103A30001092090210920A0210920B0210920C02CC
:103A40008F2D8E2909F448C08091050290910602BD
:103A50000E94DD039C0190910402992309F4C7C2DE
:103A600023333105C8F19F3F19F09F5F9093040203
:103A7000FF2059F00E9413079FEF1F140CF491E0F0
:103A8000899F802D112480930902EE2059F00E9415
:103A900013079FEF1E140CF491E0899F802D1124D1
:103AA00080930A02309109023323B1F020910A0277
:103AB000222391F045EB3403C0011124992309F42A
:103AC000FEC09093090245EB240390011124332397
:103AD00009F4F9C030930A02812F802B09F448C001
:103AE00080910202909103020E94DD039C0190915B
:103AF0000102992309F476C225363105C8F19F3FAA
:103B000019F09F5F90930102112359F00E94F10672
:103B10009FEF11160CF491E0899F802D1124809362
:103B20000B02002359F00E94F106101614F0332402
:103B30003A94839D302C112430920C0230910B0268
:103B40003323B1F020910C02222391F045EB340392
:103B5000C0011124992309F4BAC090930B0245EBDC
:103B6000240390011124332309F4B5C030930C02CF
:103B70008091090290910A02892B90910B02892B66
:103B800090910C02892B11F00E94650586E0FE01E0
:103B90003196A7E0B2E001900D928A95E1F70E947C
:103BA000590590910D02891721F00E9459058093C3
:103BB0000D0280914402843009F059CE83E0809355
:103BC000E9008091E80082FF52CE8091E80090E009
:103BD00085FF06C00E946D02882309F480C091E031
:103BE0008091E8008B778093E800992309F43FCE19
:103BF000E981E150E33108F0F4C0F0E0EC51FF4D11
:103C00000C945B2080914402843011F11092FA01EF
:103C1000E0E40FB6F894A895409260000FBEE093E0
:103C2000600083B7817F846083BF83B7816083BF77
:103C30007894889583B78E7F83BF0FB6F894A89544
:103C400080916000886180936000109260000FBED8
:103C500080914302882351F00E94C10CE5E1F2E01B
:103C60008191811187C12BA52E13FACF8091440237
:103C7000853009F4C7CF0E94780E0E945905FECD09
:103C80009F5FFF0C953009F019CE0F5F1F4F063074
:103C9000110509F008CE8FEF8EA38FA318A60E94FE
:103CA000EC038160782F9AA789A74EA15FA168A530
:103CB0008AA50E9428191FCE3324339433CE81E085
:103CC0008093090200CF81E080930A0205CF81E052
:103CD00080930B0244CF81E080930C0249CF00E235
:103CE00010E0CE0101967C018091E80085FD0AC0BC
:103CF0008091E8008B778093E8000E946D02882312
:103D000099F36DCF8091F100D7018D937D01015022
:103D1000110951F764CF1A8289E08B832DC08A8103
:103D2000823009F456C18330A9F0813009F059C0BE
:103D30002FB7F89460911B0270911C0280911D02B4
:103D400090911E022FBF0E9461206B837C838D8324
:103D50009E8312C0809115028B83809116028C8302
:103D6000809117028D83809118028E8380911902B1
:103D70008F8380911A02888780914402843009F0F1
:103D800076CD1091E9001F709091EC00892F817021
:103D900090FD80E8182B82E08093E9008091E80094
:103DA00080FF0DC050E040E060E270E0CE0101967F
:103DB0000E949E028091E8008E778093E8001F7039
:103DC0001093E90054CD8A81823059F46B817C8153
:103DD0008D819E810E94612085E290E00E948A2070
:103DE000CBCF8FEF8983C8CF4C816B818A810E94B2
:103DF000DA089827892798279E838D83BDCF2D8148
:103E00003E813227232732274C816B818A810E9491
:103E1000200BB2CF0E94490BAFCF80E18A83ACCF99
:103E200082E08A838AEE79CF8C81C82ED12CBDE1C5
:103E3000CB16D10408F0A0CF0A811B8110270127DF
:103E40001027FE0131967F01CE0EDF1EC8018A5E6B
:103E50009E4FCE14DF0409F48FCF0A3EA2E01A076A
:103E600050F40E947C20F70184830F5F1F4FBFEF47
:103E7000EB1AFB0AEBCFD70114961C92F6CF8C817C
:103E8000C82ED12CEDE1CE16D10408F075CF0A81F1
:103E90001B81102701271027CE0101967C01C00E3F
:103EA000D11EC8018A5E9E4FC016D10609F464CFA8
:103EB0000A3EA2E01A0720F4F70164810E948A20DA
:103EC000FFEFEF1AFF0A0F5F1F4FEBCF0E94100B9F
:103ED00053CF84E0A3CF8C81C82ED12C2DE1C21604
:103EE000D10408F049CF0A811B8110270127102730
:103EF000CE0101967C01C80ED91EC8018696EC142D
:103F0000FD0409F439CF003F110550F40E947C20D4
:103F1000F70184830F5F1F4FBFEFEB1AFB0AEDCF52
:103F2000D70114961C92F6CF8C81C82ED12CEDE1CE
:103F3000CE16D10408F020CF0A811B81102701275B
:103F40001027CE0101967C01C00ED11EC8018696B5
:103F5000C016D10609F410CF003F110528F4D7018F
:103F600014966C910E948A20BFEFEB1AFB0A0F5F38
:103F70001F4FECCF09BD19BD09B400FEFDCF8091E4
:103F8000D8008F7D8093D8008091E000826080937C
:103F9000E0008091E00081FDFCCF0E94780E66CEAB
:103FA00060E085E290E00E948A200E94490B0E9416
:103FB000100B61E282E290E00E948A2064E083E2DA
:103FC00090E00E948A2066E184E290E00E948A20CC
:103FD000BCCB85E290E00E947C201B821C821D826B
:103FE0008E83CACE2D32314008F08BCDC1CD2D321B
:103FF000314008F03ACD70CD78941F921FB61F92D1
:1040000011248F939F93AF93BF9380911B02909144
:104010001C02A0911D02B0911E020196A11DB11DAE
:1040200080931B0290931C02A0931D02B0931E026A
:10403000BF91AF919F918F911F901FBE1F901895B8
:104040001F921FB61F9211248F939F93AF93BF931C
:104050008091FA01811113C080911B0290911C0282
:10406000A0911D02B0911E024196A11DB11D809329
:104070001B0290931C02A0931D02B0931E02BF91DD
:10408000AF919F918F911F901FBE1F90189597FB26
:10409000072E16F4009407D077FD09D00E946820FF
:1040A00007FC05D03EF4909581959F4F089570953B
:1040B00061957F4F0895EE0FFF1F0590F491E02D5D
:1040C00009946927962769277827872778270895ED
:1040D000AA1BBB1B51E107C0AA1FBB1FA617B7072E
:1040E00010F0A61BB70B881F991F5A95A9F780954A
:1040F0009095BC01CD010895F999FECF92BD81BD87
:10410000F89A992780B50895A8E1B0E042E050E020
:104110000C94B020262FF999FECF92BD81BDF89A5C
:10412000019700B4021639F01FBA20BD0FB6F894FB
:10413000FA9AF99A0FBE08950396272F0E948B20B2
:104140000E948A20252F0E948B20242F0C948B20E4
:104150000196272F0E948B200C948A20DC01CB0132
:10416000FC01F999FECF06C0F2BDE1BDF89A319687
:1041700000B40D9241505040B8F70895F894FFCF25
:10418000FB0AFB0A040B040B060B040B040B040BC9
:10419000FB0AFB0A0B0B040B040B0B0B720F9A0FA1
:1041A000ED0F9A0FED0FCD0F0510ED0F0D111A1138
:1041B000B213B2130E140E1467148114E713E7132D
:1041C0008E146415731573158B1E8F1EE31EF41E5B
:1041D000FF1E0A1FF11EF11EF11EF11EF11E0D1F22
:0E41E000101F141F3F1F661F691F6B1F941FC7
:1041EE00DA03DC0BBB0BB70BB30B01818283E2004E
:1041FE00E900EA00B500B600B700CD008301CC009F
:10420E008A01920194012102230224022502260230
:10421E0027022A02B300B4006F007000F6F73133A4
:10422E00323666973435C600FF0100010000FFFFED
:10423E000000010001FF00929394F54022BC8A0118
:0A424E006801AC007C039503B50382
:00000001FF
