:100000000C94B9020C9400030C9400030C940003AC
:100010000C9400030C9400030C9400030C94000354
:100020000C9400030C9400030C94431C0C94FF1BD1
:100030000C943D230C9400030C9400030C940003D7
:100040000C9400030C9400030C9400030C94000324
:100050000C9400030C9419230C9400030C940003DB
:100060000C9400030C9400030C9400030C94000304
:100070000C9400030C9400030C9400030C940003F4
:100080000C9400030C9400030C9400030C940003E4
:100090000C9400030C9400030C9400030C940003D4
:1000A0000C9400030C9400030C9400030501090256
:1000B000A10185020901A100050919012905150001
:1000C00025019505750181029501750381010501E1
:1000D000093009311581257F950275088106093897
:1000E0001581257F950175088106050C0A380215D2
:1000F00081257F950175088106C0C005010980A191
:1001000001850319012AB700150126B7009501756D
:10011000108100C0050C0901A101850419012AA064
:1001200002150126A002950175108100C005010984
:1001300006A1018505050719E029E71500250195A8
:1001400008750181020507190029EF1500250195A1
:10015000F0750181020508190129059505750191C0
:1001600002950175039101C00660FF0961A10109B3
:1001700062150026FF0095207508810209631500AD
:1001800026FF00952075089102C005010906A1010E
:10019000050719E029E71500250195087501810279
:1001A0009501750881010507190029FF150026FF33
:1001B0000095067508810005081901290595057542
:1001C000019102950175039101C00000000000003B
:1001D000000000000000000000000000000000001F
:1001E00000000000000000000000000000007E0F82
:1001F00000D4FFFFFFC700000078000000000000EF
:1002000000002A2B28000000000000000000000071
:10021000000000000029000000002C1E34202122D4
:1002200024342627252E362D3738271E1F2021223D
:10023000232425263333362E37381F0405060708B6
:10024000090A0B0C0D0E0F101112131415161718A6
:10025000191A1B1C1D2F3130232D350405060708E4
:10026000090A0B0C0D0E0F10111213141516171886
:10027000191A1B1C1D2F3130354C0000A8002B0013
:100280002A004700000053005400550056004A0061
:100290005F006000610000004B005C005D005E00DC
:1002A00057004E0059005A005B0000004D0000004E
:1002B0006200630058000000000000000000000021
:1002C000000000000000000000000000000000002E
:1002D000000000000000000000000000000000001E
:1002E000000000000000000000000000000000000E
:1002F00000000000000000000000000000000000FE
:1003000000000000000000000000000000000000ED
:1003100000000000000000000000000000000000DD
:1003200000000000000000000000000000000000CD
:1003300000000000000000000000000000000000BD
:1003400000000000000000000000000000000000AD
:10035000000000000000000000000000000000009D
:1003600000000000000000000000FD377A585A002D
:100370000004E6D6B4460200210116000000742FE6
:10038000E5A3E002A6010E5D003D8889C65436C390
:10039000174FE4E62BD64A0C1C67EA0DB30BC4A733
:1003A000FA84D5B7C119F404D5256D34F06106B7C8
:1003B0007A1C33B06AC669CF84091E6A46CBBBD3A8
:1003C0000BD071A8386B79E3D03C48B0C03AF7EC59
:1003D000F1F7D628712B53070C0A0A0A818370297A
:1003E0008B66A40AF3C68F690D010D9F7FCCCA7B73
:1003F0002007F3ADE13A6C2C41CA657EA0964021FE
:10040000452E3355D94D1800D6C457EF0A9DD87ED6
:100410005E1A884C2349A10A2F73DD956A78F17022
:100420009C593A13661C60550694628922C6BFEE39
:100430008D77173F7E09CFEBD528EF63C0E4877136
:10044000AB7A23443E754EDD869348D3E31C1F48A8
:1004500039A730D185D05A875F7C4A73D15CDBB62F
:100460000BF892245EBF383113CBA3EE0149B67A64
:10047000DEA7EC32DABE5502D4929B67DF78F1C575
:10048000217B293DEB765C957496C97171EC22C590
:1004900031CD5A64C49FD200000040C1A1093FD2AF
:1004A0006B7E0001AA02A7050000625665D7B1C4A1
:1004B00067FB020000000004595A09025B000301B7
:1004C00000A0FA0904000001030101000921110143
:1004D00000012240000705810308000A0904010009
:1004E000020300000009211101000122220007057A
:1004F0008203200001070503032000010904020014
:10050000010300000009211101000122BC000705C0
:10051000840320000A1201100100000008766750D1
:10052000530100010203011C037600690061006CA5
:10053000003A006600360034006300320062003387
:100540000063000000120353007000610063006349
:100550000050006100640000001203470076006153
:10056000006C006300680063006100000004030980
:10057000040011241FBECFEFDAE0DEBFCDBF04B60A
:1005800003FE27C08091650290916602A0916702E8
:10059000B09168028730904BA740B04BD1F41092D5
:1005A000650210926602109267021092680214BEF1
:1005B00084B7877F84BF0FB6F894A89580916000B8
:1005C000886180936000109260000FBEE0E0F8E365
:1005D000099511E0A0E0B1E0E2E3F8E402C0059083
:1005E0000D92A437B107D9F722E0A4E7B1E001C02A
:1005F0001D92A536B207E1F70E941A1D0C94EB2359
:100600000C940000E8EDF0E080818E7F80831092F2
:10061000E2001092DA001092E100A0EEB0E08C91BE
:1006200081608C9380818F77808319BCA7EDB0E0C7
:100630008C918E7F8C9380818F7E808310922F028D
:1006400008952091E4003091E50095E6A9012091FC
:10065000EC00822F817020FF06C08091E80080FFAF
:1006600006C080E008952091E80022FD1AC0809124
:100670005402882389F0853089F08091EB0085FD54
:100680000FC02091E4003091E50042175307F9F2C2
:100690009150E1F684E0089582E0089583E00895A2
:1006A00081E00895EF92FF920F931F93CF937C0107
:1006B0008B010E942103C82F811117C08091E8008F
:1006C00085FD0BC08091E8008E778093E8000E9442
:1006D0002103882399F3C82F08C0F70181917F0176
:1006E0008093F1000150110949F78C2FCF911F9190
:1006F0000F91FF90EF9008958091560287FF13C0ED
:100700008091E80082FF06C08091E8008B7780939B
:10071000E80004C0809154028111F2CF08958091C5
:1007200054028823D9F38091E80080FFF8CF8091AC
:10073000E8008E77ECCF982F9093E900242F762F46
:1007400050E0891731F07091EC002091ED0050914C
:10075000F00021FD07C09F5F973071F78093E9009B
:1007600081E008953091EB003E7F3093EB003091B3
:10077000ED003D7F3093ED003091EB003160309320
:10078000EB007093EC002093ED005093F00020916B
:10079000EE0027FDE0CF80E00895CF92DF92EF9248
:1007A000FF920F931F93CF93DF93C8EDD0E0888122
:1007B0008F7E8883E7EDF0E080818160808384E034
:1007C00082BF81E080932F0288818E7F888302EE32
:1007D00010E0F80110821092DA0081EEC82ED12CC0
:1007E000F601108288818F7788838881806888836A
:1007F00088818F7D888319BC109254021092550213
:10080000109253021092520290EEE92EF12CF70151
:1008100080818B7F808388818160888342E060E073
:1008200080E00E949B03F60180818E7F8083F80127
:10083000808181608083808188608083F7018081EE
:100840008E7F8083888180618883DF91CF911F9123
:100850000F91FF90EF90DF90CF900895FC01809171
:100860005C0290915D0286179707A0F061157105F3
:1008700029F49091E8009E779093E80090E061154C
:10088000710551F4911108C08091E80082FF34C0D5
:1008900080E00895BC01F2CF809154028823C1F119
:1008A0008530C1F18091E80083FD30C08091E8007F
:1008B00082FDEACF8091E80080FFE1CF8091F300D4
:1008C0002091F200382F6115710519F0283031059B
:1008D00058F091E02830310509F090E02091E800CF
:1008E0002E772093E800CBCF81918093F100615067
:1008F00071092F5F3F4FE7CF80915402882341F069
:10090000853041F08091E80083FFBECF81E00895FB
:1009100082E0089583E0089580E008958091310297
:1009200008959C014FB7F8948091290290912A0272
:10093000A0912B02B0912C024FBF821B930B089504
:100940002FB7F8948091290290912A02A0912B024E
:10095000B0912C022FBF089520910C012223C9F0E1
:100960002091020227FF15C0E62FE695E695E69551
:10097000EE31D8F4E80FF92FF11D677021E030E077
:1009800001C0220F6A95EAF72095828128232283ED
:100990000895FC01329608962191621303C0DF018D
:1009A00011971C92E817F907B9F7089520910C01E7
:1009B0002223C1F02091020227FF14C0E62FE69502
:1009C000E695E695EE31F8F4E80FF92FF11D677022
:1009D00021E030E001C0220F6A95EAF78281822B84
:1009E00082830895FC0132962FEF30E04191641725
:1009F00051F02F3F19F4411101C0232F3F5F3630D2
:100A0000A9F72F3F09F40895820F911D27FD9A95AC
:100A1000FC01628308958091F30181111092F3012A
:100A200008958091F2019091F101892B9091F0014C
:100A3000892B809376019091F3019923A1F0892B62
:100A40008093760180910C01882341F1809102020C
:100A500087FF24C08EE1E8E7F1E090E0815000F5E7
:100A600091110E940B05E0910402F091050230976C
:100A7000E1F080910C01882359F08091020287FFF8
:100A800007C0809176018093770185E0809376019D
:100A90000280F381E02D86E791E0099486E0DBCFC8
:100AA00021912223D9F29F5FD9CF0895E92FEE0F2C
:100AB000EE0F9E0F890F982F9770869586958695D5
:100AC00025E0829FF0011124E552FE4F50E040E006
:100AD00080E0219130E0092E02C0369527950A94D6
:100AE000E2F721703327042E01C0220F0A94EAF79F
:100AF000822B4F5F5F4F4530510559F70895E92F1D
:100B0000EE0FEE0F9E0F890F982F977041E001C0F6
:100B1000440F9A95EAF786958695869595E0899F84
:100B2000F0011124E552FE4F30E020E070E05191D9
:100B3000DF011197CB01022E02C0969587950A948A
:100B4000E2F7817081958527842385278C932F5F19
:100B50003F4F2530310559F708958091DA01909182
:100B6000A901981301C008958F5F8770FACF882379
:100B700041F080959091F10189238093F1010C94CB
:100B800011050895882339F09091F101982B9093E5
:100B9000F1010C9411050895882341F080959091FE
:100BA000F20189238093F2010C94110508958823A2
:100BB00039F09091F201982B9093F2010C94110569
:100BC00008952091A0013091A1012817390771F0F3
:100BD0009093A1018093A001E0910402F09105029D
:100BE000309721F00084F185E02D0994089520913B
:100BF0009E0130919F012817390771F090939F0152
:100C000080939E01E0910402F0910502309721F05B
:100C10000680F781E02D09940895E0910402F09197
:100C20000502309721F00190F081E02D099480E0D9
:100C300008950E94A0049C0190911B0280911C02C7
:100C4000982B21F0309318022093170290911D02E7
:100C500080911E02982B21F03093150220931402EC
:100C6000E0910402F0910502309749F082E0809310
:100C700019020480F581E02D89E192E0099408953C
:100C800090E080E00E94F70590E080E00E94E1059E
:100C90001092F1011092F0010E94110586E0E9E145
:100CA000F2E0DF011D928A95E9F710921602109288
:100CB00013021092A2010C941906609361027093C2
:100CC000620280936302909364020C9440060F9337
:100CD0001F93609161027091620280916302909112
:100CE00064028B019C0106701127222733270630EE
:100CF00011052105310529F468601F910F910C94AD
:100D00005D06677FFACF0F931F9341E050E060E0EC
:100D100070E004C0440F551F661F771F8A95D2F7F5
:100D2000CB01BA0160957095809590950091610214
:100D3000109162022091630230916402602371235A
:100D4000822393231F910F910C945D069091EF01E4
:100D5000809589238093EF01282F277071F4282F25
:100D6000082E000C330B9217130639F085958595E4
:100D700085950E9483061092EF0108950F931F93AB
:100D800041E050E060E070E004C0440F551F661F72
:100D9000771F8A95D2F78091610290916202A091AB
:100DA0006302B09164028A019B01082B192B2A2B44
:100DB0003B2BC901B8011F910F910C945D06609304
:100DC000F4017093F5018093F6019093F7010C9470
:100DD000400690911B02803F59F480911C0287FFCE
:100DE0000DC010921C0291110BC01092160208C087
:100DF000813F81F480911C0218169CF3992381F0A5
:100E000080911D0290911E02892B09F064C01092FE
:100E100013020895823F49F497FFF0CF10921B020E
:100E200080911C028111ECCFE0CF833F19F4191699
:100E3000ACF3E4CF20911D02893F29F41216F4F699
:100E400010921D02DBCF8A3F19F427FFD7CFF8CFCE
:100E500020911E028B3F29F427FFD0CF10921E0253
:100E6000CDCF8C3F19F41216CCF3C8CF843F31F4A8
:100E700080911A028E7F80931A02C0CF853F21F4A1
:100E800080911A028D7FF7CF863F21F480911A025C
:100E90008B7FF1CF873F21F480911A02877FEBCFC0
:100EA000883F21F480911A028F7EE5CF8D3F31F487
:100EB0008091A2018E7F8093A201A0CF8E3F21F46A
:100EC0008091A2018D7FF7CF8F3F09F097CF80915E
:100ED000A2018B7FF0CF08958823B1F19CEF980F8A
:100EE000913A38F4682F86E791E00E94AC040C94A4
:100EF000110590E2980F983088F4877021E030E077
:100F0000A90102C0440F551F8A95E2F7CA018095D6
:100F10009091F20189238093F201E9CF9BE5980F2C
:100F2000933020F490E080E00C94F70598E5980F5A
:100F3000973120F490E080E00C94E105803F20F0B0
:100F40000E94E9060C94190608958091A20180FD83
:100F500016C081FD16C082FD16C080911302882341
:100F6000A1F0883280F428E0829FC001112468E259
:100F700070E00E946423862F672B39F0089582E089
:100F8000089584E0089588E0089581E008958091AF
:100F9000A20180FD14C081FD14C082FD16C08091A5
:100FA0001602882381F0843180F422E3829FC001FD
:100FB000112464E170E00E946423862F08958CE080
:100FC000089589E1089585E0089582E30895803FBA
:100FD00031F40E94C707819580931C020895813FD8
:100FE00019F40E94C707F8CF823F31F40E94C70767
:100FF000819580931B020895833F19F40E94C707CF
:10100000F8CF893F29F40E94A50780931D02089517
:101010008A3F21F40E94A5078195F7CF8B3F31F4D9
:101020000E94A507819580931E0208958C3F19F4B4
:101030000E94A507F8CF843F31F480911A028160A5
:1010400080931A020895853F21F480911A028260EC
:10105000F7CF863F21F480911A028460F1CF873F59
:1010600021F480911A028860EBCF883F21F48091AF
:101070001A028061E5CF8D3F31F48091A201816039
:101080008093A20108958E3F21F48091A201826095
:10109000F7CF8F3FB9F78091A2018460F1CFCF9352
:1010A000C82F882309F46FC08CEF8C0F813AC0F5EC
:1010B00080910C01882311F18091020287FF1EC0EC
:1010C000EC2FE695E695E695F0E0EA58FE4F828132
:1010D00090E04C2F477021E030E002C0220F331F18
:1010E0004A95E2F782239323892B91F06C2F86E7B0
:1010F00091E00E94AC040E9411050AC0E8E7F1E00B
:101100008EE791E02191C21789F38E179F07D1F7DF
:101110006C2F86E791E00E94D604CF910C941105C4
:1011200080E28C0F883068F4C77021E030E001C0A5
:10113000220FCA95EAF78091F201822B8093F20187
:10114000ECCFEBE5EC0FE33040F4F0E0EB5EFE4F6C
:10115000808190E0CF910C94F705E8E5EC0FE73142
:1011600050F4F0E0EE0FFF1FE85EFE4F80819181AA
:10117000CF910C94E105C03F30F08C2F0E94E7071F
:10118000CF910C941906CF910895F894E82FE29529
:10119000EF70F0E031A1282F2F7081E090E001C0C6
:1011A000880F2A95EAF7982F9095932391A392A1FF
:1011B000892B82A3789408959091020292FF06C031
:1011C000282F28712830F9F4877F846093FF06C0A8
:1011D000282F28712831F1F4877E84612091030241
:1011E00020FF06C0382F38713830D9F4877F8160EE
:1011F00021FF06C0282F28712831D1F4877E816114
:1012000094FD877E0895282F24712430F9F68B7F72
:101210008860DCCF282F2471243101F78B7E886110
:10122000DDCF382F3171313019F78E7F8860E0CFF4
:10123000282F2171213121F78E7E8861E1CFCF9354
:10124000DF939C013A9521153F4168F5EC01CC27CD
:10125000D170DC01AA27B270AC01442754709C0104
:101260002227387094FF11C080E1CD2B09F480E073
:10127000AB2B09F08062452B09F08064232B09F029
:101280008068FB01DF91CF91099481E0CD2B09F4B7
:1012900080E0AB2B09F08260452B09F08460232BA2
:1012A00081F38860EECFDF91CF910895CF93DF93E4
:1012B000EC010E946C07CE01805E9109089720F036
:1012C00067EB75E0209711F46CEC75E0CE01DF91CF
:1012D000CF910C941F09CF93DF93EC01805E9109AD
:1012E000089720F062EC75E0209711F467ED75E047
:1012F000CE010E941F098C2FDF91CF910C944F08D3
:10130000CF9384E090E00E94A923C82F81E290E06F
:101310000E94A923982F8C2FCF9108950F931F938C
:10132000CF93DF93843038F5623028F528E0829F30
:10133000C001112434E0639FB0011124860F971F70
:10134000C42FD0E0CC0FDD1FC80FD91FCA5EDE4FFF
:10135000CE010E94A923082F10E0102F0027CE01F4
:1013600001960E94A9239801282BC901DF91CF91F2
:101370001F910F91089590E080E0F8CF0F931F9395
:10138000CF93DF93843030F5663020F5453010F58B
:10139000C42FD0E0CC0FDD1F2AE0629FC00DD11D0D
:1013A00011243CE3839FC00DD11D1124CE018696EC
:1013B0000E94A923082F10E0102F0027CE01879646
:1013C0000E94A9239801282BC901DF91CF911F9179
:1013D0000F91089590E080E0F8CF462F20912D02E4
:1013E00030912E02232B91F47E3F39F46E3F71F43D
:1013F00080919C0190919D010895843038F476305D
:1014000028F4653018F4672F0C94BE0990E080E052
:101410000895CF93DF930E94ED09EC018238910586
:10142000A9F1D8F58133910509F496C048F58932C0
:10143000910509F48AC08A9709F495C0C11521E580
:10144000D20708F0BCC0C11530E5D30708F014C1BD
:10145000C83ED10508F09CC0C03ED10560F5C83A31
:10146000D10508F087C0C53AD10508F0FDC0C130EC
:10147000D10509F12097F9F0C430D105E0F440C05E
:101480008533910509F45AC0C997C1F680910202CB
:10149000837089F0C0EED0E00EC0833E910599F1D3
:1014A00070F4803E910501F1823E910539F68091FC
:1014B000020282FD21C0CE01DF91CF910895863EC8
:1014C000910561F1873E910571F1843E910509F026
:1014D000B5CF8091030281FFEECF80910202C7EE6B
:1014E000D0E084FD0DC0E7CF8091020280FD12C1E3
:1014F0009091030290FFDFCFC3EED0E084FFDBCFFB
:10150000D0E0C0E0D8CF8091020282FD06C1909168
:10151000030290FDBFCF84FFCECFF2CF80910202B5
:1015200083FDDDCFC8CF8091020283FDF9C0909189
:10153000030291FFF0CFC4EED0E0BDCF8091020254
:1015400085FFB9CFC9E2D0E0B6CF8091020285FF16
:10155000B2CFC5E3D0E0AFCF8091020286FFABCF20
:10156000CAE2D0E0A8CF8091020286FFA4CFC1E3F7
:10157000D0E0A1CFCF3BD10518F6C85AD0E0CC0FB0
:10158000DD1FC85EDE4F0990D881C02DD46493CF93
:10159000C11540E2D40758F4C11581E0D80708F01E
:1015A0008ACFC03FD10508F4ABCFD06584CFC11539
:1015B00090E4D90708F4A4CFDF70D06A7CCFC115BE
:1015C00025E5D20700F5C11534E5D30708F08AC038
:1015D000C11543E5D40708F071C0C11582E5D807ED
:1015E00008F467C0CE018370992721E030E002C083
:1015F000220F331F8A95E2F7C695C69580E2C89FF1
:10160000E001112452C0C11599E5D907A8F4C1150C
:1016100028E5D20708F06BC0C11536E5D30708F0FE
:101620006FCF8C2F0E94DC08C82FD0E0DC2FCC2796
:10163000CC27DF71D0623FCFC1154AE5D40708F44B
:101640005BC0CE0190568115904208F059CF8D2F86
:101650008F710E94DC0890E0982F882788279F715F
:101660009C012C2BE901E6CFC55AD0E0CB5EDE4FC2
:10167000C881D0E0D0641FCFCE01E4E09695879575
:10168000EA95E1F783702C2F26952695237040E28A
:10169000249F90011124382B8C2F8370C1E0D0E05F
:1016A00002C0CC0FDD1F8A95E2F7C22BD32BDC687A
:1016B00002CFDC2FCC27C16FD06AFDCECE01837064
:1016C000992721E030E002C0220F331F8A95E2F70C
:1016D000C695C69590E2C99FE0011124C22BD32B79
:1016E000DA68E9CEDC2FCC27C46FD06AE4CEDC2FD9
:1016F000CC27C06FD06ADFCE8C2F8F700E94DC08A1
:1017000034E0D695C7953A95E1F7CF709C2FEC0160
:10171000D069D1CEC9E3D0E0CECEC2EED0E0CBCE00
:10172000C6EED0E0C8CEBF92CF92DF92EF92FF928A
:101730000F931F93CF93DF938C01C0906102D090E1
:101740006202E0906302F09064028091F401909153
:10175000F501A091F601B091F701C82AD92AEA2A29
:10176000FB2ACFE1D0E0BC2ED701C6010C2E04C06D
:10177000B695A795979587950A94D2F780FD0EC0E8
:10178000219788F7B12C8B2DDF91CF911F910F916D
:10179000FF90EF90DF90CF90BF900895B8018C2F0D
:1017A0000E94090A019761F3EECFCF93DF93EC011A
:1017B0000E94930BBE01DF91CF910C94090A0E9405
:1017C000D50B292F2F7092959F7092509E3078F4F0
:1017D000E92FF0E0E351FC4D0C947823803F19F0A1
:1017E00020F4883E20F481E00895843FE1F380E016
:1017F0000895883EC0F3813FD1F7F5CF822F8695BB
:10180000869586950895CF93DF93C6E3D1E060E097
:10181000CE010E94B7232196C11584E0D807B9F7FD
:10182000DF91CF9108950F931F93CF93DF93890199
:10183000843068F5623058F5423048F501152CE5E2
:10184000120731F42091000130910101232BF9F0AE
:1018500028E0829FC001112424E0629FB00111247E
:10186000860F971FC42FD0E0CC0FDD1FC80FD91FE4
:10187000CA5EDE4F612FCE010E94B723602FCE01DA
:101880000196DF91CF911F910F910C94B723DF91B7
:10189000CF911F910F9108950F931F93CF93DF93D3
:1018A0008901843048F5663038F5453028F5211532
:1018B0003C4531F42091000130910101232BE1F0EE
:1018C000C42FD0E0CC0FDD1F9AE0699FC00DD11D61
:1018D00011249CE3899FC00DD11D1124612FCE01DD
:1018E00086960E94B723602FCE018796DF91CF9115
:1018F0001F910F910C94B723DF91CF911F910F91FE
:1019000008958F929F92AF92BF92CF92DF92EF9203
:10191000FF921F93CF93DF9380900001909001017D
:1019200081E090E090930101809300018AE7C82E46
:1019300082E0D82EC0E07601D0E014C0F5012591F8
:101940003491412F6D2F8C2F0E944C0C82E0A80EF9
:10195000B11C1F5F153091F78AE0E80EF11CDF5FC4
:10196000D63019F0570110E0E9CF21E030E040E037
:1019700060E08C2F0E94130C21E030E041E060E039
:101980008C2F0E94130C21E030E040E061E08C2FAE
:101990000E94130C21E030E041E061E08C2F0E94B6
:1019A000130CCF5F8CE3C80ED11CC43009F0C3CF39
:1019B0009092010180920001DF91CF911F91FF90E1
:1019C000EF90DF90CF90BF90AF909F908F90089551
:1019D0001092F20180910C01E8E7F1E0882359F0C0
:1019E0008091020287FF07C08EE1DF011D928A9578
:1019F000E9F70C94400686E0F8CF1F93CF93DF936E
:101A0000CDB7DEB7AA970FB6F894DEBF0FBECDBF35
:101A100086E592E02091F100DC012D93CD01B2E04A
:101A20008E359B07B9F780915702833009F471C056
:101A3000B8F4813009F448C0823009F4B2C0809112
:101A4000E80083FF3AC180915602909157029A3084
:101A500008F033C1E92FF0E0E550FC4D0C947823F9
:101A60008A3009F48DC08B3009F470C0893039F7A1
:101A700080915602813219F780915A0290915B024F
:101A8000009711F00297D9F68091E800877F809344
:101A9000E8008091E80082FF37C09091F3008091C8
:101AA000F200029729F48091F1008B7F813021F4BC
:101AB0008091F100809331028091E8008B778093D0
:101AC000E8000E947C03BBCF80915602813A09F066
:101AD000B6CF8091E800877F8093E80080915A021A
:101AE00090915B02892B61F460E282E392E070E006
:101AF0000E942E048091E8008B778093E8009FCFAE
:101B000060E090E080E0F3CF809154028111C1CF7A
:101B100096CF80915602813A09F091CF80915A0276
:101B200090915B02892B09F08ACF8091E800877F32
:101B30008093E8008091E80080FFFCCF80910C0149
:101B40008093F1008091E8008E77B9CF80915602A2
:101B5000813209F074CF80915A0290915B02892BF7
:101B600009F06DCF8091E800877F8093E8000E94A4
:101B70007C038091580280930C010E94E80C5FCF97
:101B800080915602813209F05ACF8091E800877F18
:101B90008093E8000E947C03809159028093300278
:101BA0004ECF80915602813A09F049CF8091E800EA
:101BB000877F8093E8008091E80080FFFCCF8091D0
:101BC0003002BECF803899F0823809F076C080911B
:101BD0005A028F70873008F070C08093E9008091BE
:101BE000EB0085FB882780F91092E90006C0809100
:101BF000520290915302911182609091E800977F78
:101C00009093E8008093F1001092F1008091E80039
:101C10008E77C0C1882309F4ADC1823009F04DC070
:101C2000809158028111B1C180915A028F702FEFBB
:101C3000280F263008F041C08093E9002091EB0086
:101C400020FFA3C1933031F48091EB008062809338
:101C5000EB009BC19091EB0090619093EB0021E031
:101C600030E001C0220F8A95EAF72093EA00109233
:101C7000EA008091EB008860EACF81111EC01091CC
:101C800058021F778091E3008078812B8093E300D6
:101C90008091E800877F8093E8000E947C03809118
:101CA000E80080FFFCCF8091E30080688093E30030
:101CB00082E0111183E0809354028091E80083FF59
:101CC0000AC08091E800877F8093E8008091EB0054
:101CD00080628093EB00AA960FB6F894DEBF0FBE29
:101CE000CDBFDF91CF911F9108958058823028F7A2
:101CF00020915802309159022C3DE3E03E07A1F5B6
:101D000083E08A838AE289834FB7F894DE011396D1
:101D100020E03EE051E2E32FF0E050935700E491E1
:101D200020FF03C0E295EF703F5FEF708E2F90E0D1
:101D3000EA30C0F0C7968D939D932F5F243159F7F9
:101D40004FBF8091E800877F8093E8006AE270E0EF
:101D5000CE0101960E942E048091E8008B7780933B
:101D6000E800ABCFC096E7CF80915A0290915B021A
:101D7000432F55274330510509F44AC078F54130C7
:101D8000510509F485C08BE590E0EAEBF4E04230C0
:101D9000510509F092CF2091E800277F2093E800B9
:101DA00020915C0230915D028217930708F49C0138
:101DB00040E02115310509F070C041116EC08091DD
:101DC000E80082FDC9CF80915402882329F2853032
:101DD00019F28091E80083FFF2CFBECF4132510566
:101DE00009F447C04232510509F067CF83309105AD
:101DF00008F063CFFC01EE0FFF1FE859FE4F019082
:101E0000F081E02D8B599E4FDC018C9190E01DC03C
:101E1000332721303105E9F02115310579F02230E1
:101E20003105F9F02330310509F047CFE7E2F5E05D
:101E3000E4918E2F90E0E7E2F5E007C0EDE6F5E0F3
:101E4000E4918E2F90E0EDE6F5E0009709F435CFB0
:101E5000A2CFE9E5F5E0E4918E2F90E0E9E5F5E029
:101E6000F4CFE5E4F5E0E4918E2F90E0E5E4F5E0D1
:101E7000ECCF8330910508F020CF880F991FFC012B
:101E8000E259FE4F0190F081E02D89E090E083CF90
:101E900082E190E0E5E1F5E07ECF80915402882375
:101EA00009F45ACF853009F457CF8091E80083FDBB
:101EB00053CF8091E80082FD82CF8091E80080FFBF
:101EC00078CF9091F3008091F2002115310519F03F
:101ED0008830910550F041E0089709F040E080918A
:101EE000E8008E778093E80064CF44914093F1003E
:101EF0003196215031090196E8CF803809F0DDCEC6
:101F00008091E800877F8093E8008091550280935C
:101F1000F1007CCE8111D1CE10915802123008F020
:101F2000CCCE8091E800877F8093E8001093550223
:101F30000E947C03112311F084E005C08091E3002E
:101F400087FDFACF81E08093540242E061EC81E0AA
:101F50000E949B0342E261EC84E00E949B0342E208
:101F600061EC82E00E949B0342E260EC83E00E940D
:101F70009B03A3CE80915802813009F09ECE81E070
:101F8000933009F080E0809353021092E900809131
:101F9000E800877F8093E8000E947C038ECECF9379
:101FA000DF9300D00F92CDB7DEB7909154029430FA
:101FB00011F589837B836A839093E9008FEF909179
:101FC000E800815095FD06C095ED9A95F1F7000067
:101FD0008111F5CF8091E80085FF0DC050E040E011
:101FE00063E070E0CE0101960E9452038091E80008
:101FF0008E778093E8000F900F900F90DF91CF9134
:102000000895BC0184E00C94CF0FBC0183E00C94D4
:10201000CF0F9C0184E08093E9009FEF8091E8005E
:10202000915085FD06C085ED8A95F1F7000091116C
:10203000F5CF8091E80085FF0CC050E040E066E0FD
:1020400070E0C9010E9452038091E8008E7780936E
:10205000E8000895CF93DF93EC0180910C01882371
:10206000B1F18091020287FF32C060E284E0809388
:10207000E9008FEF9091E800815095FD06C095ED45
:102080009A95F1F700008111F5CF8091E80085FF66
:102090001BC080910C0170E050E040E0811104C051
:1020A00050E040E068E070E0CE010E945203809171
:1020B000E8008E778093E80080E2FE01A2E3B2E0C0
:1020C00001900D928A95E1F7DF91CF91089568E034
:1020D00081E0CDCF81E08093E00080E28093D80062
:1020E0001092C9008FE19EE40197F1F700C0000053
:1020F00087E090EBDC018093650290936602A093E9
:102100006702B093680288E19CE00FB6F894A89546
:10211000809360000FBE90936000FFCF1F93CF931A
:10212000DF93182FD0E0C0E0893311F4C0E5D0E090
:10213000812F0E944F08209731F4812FDF91CF919A
:102140001F910C946C078FE99FE00197F1F700C095
:1021500000002197F0CF0F931F93CF93DF93C62FEB
:10216000D42F022FFC0182818823A1F060936002AA
:102170000E94A00490935F0280935E02C77081E08A
:1021800001C0880FCA95EAF7DF91CF911F910F9197
:102190000C94D70580916002681335C080915E026F
:1021A00090915F020E949104883C910560F510E2D5
:1021B0001D0FCD17B9F080E28C0F883040F4C77046
:1021C00081E001C0880FCA95EAF70E94CC0518305B
:1021D00048F481E09D2F977001C0880F9A95EAF727
:1021E0000E94D705802F0E948E10183098F4D77067
:1021F00081E001C0880FDA95EAF7DF91CF911F9156
:102200000F910C94CC05C77081E001C0880FCA956E
:10221000EAF7F3CFDF91CF911F910F910895BF920D
:10222000CF92DF92EF92FF920F931F93CF93DF93A2
:1022300086E4E82E81E0F82ECCEFD1E0C12CD12C41
:1022400001E010E0F70181917F01F894E82FE29519
:10225000EF70F0E021A18F70A80102C0440F551F5C
:102260008A95E2F7CA01922F982B91A392A18095AB
:10227000892382A3789400C0ECE4F1E030E020E010
:10228000B12C4191A42FA295AF70B0E090968C91A3
:1022900090E04F7002C0959587954A95E2F780FDD2
:1022A00050C0802F022E01C0880F0A94EAF7B82A86
:1022B0002F5F3F4F2530310521F7F701319780819E
:1022C0000E94C50855E0C51619F080EA8A95F1F715
:1022D0008881B816C1F1B88281E0D82AC3942196CA
:1022E000E6E0CE12AFCFDD2081F181E080939B014B
:1022F0000E94A00490939A01809399018091990182
:1023000090919A010E949104069718F18091FC0126
:10231000809307028091FD01809308028091FE0165
:10232000809309028091FF0180930A02809100024C
:1023300080930B028091010280930C0210929B010A
:1023400008C080E0B4CF80E0C8CF80919B018111AC
:10235000D5CF8D2DDF91CF911F910F91FF90EF90F1
:10236000DF90CF90BF900895AF92BF92CF92DF924F
:10237000EF92FF920F931F93CF93DF93EC018AE0CC
:10238000A82E2881222309F48CC02130C9F5998117
:102390008A81913021F422960E948E1005C09230DD
:1023A00029F422960E944F082196EBCF933021F416
:1023B00022960E946C07F8CF943011F02196F4CF4A
:1023C000229630E020E0AE014F5F5F4F8053990BC3
:1023D0008A30910550F02150310930F38FE99FE0A8
:1023E0000197F1F700C00000F6CFA29EB001A39EB6
:1023F000700D11249C01260F371F8981EA01E3CF5C
:10240000E22FF0E0E650FE4FB490822F869586953D
:10241000869590E0FC01E651FE4FE4902770F12C88
:10242000022E02C0F594E7940A94E2F731E0E32229
:10243000FF24FC01E652FE4FC490D12C022E02C0B4
:10244000D594C7940A94E2F731E0C322DD24FC015D
:10245000E653FE4F049110E002C0159507952A95AA
:10246000E2F701701127E114F10419F081EE0E94E6
:102470004F08C114D10419F086EE0E944F088B2D2D
:102480000E948E10CD2819F086EE0E946C07EF286E
:1024900019F081EE0E946C07012B09F485CF8CE2C4
:1024A0007BCFDF91CF911F910F91FF90EF90DF9045
:1024B000CF90BF90AF9008956BEE7EEF90E080E0FC
:1024C0000E94D52360E082E090E00E94B72360E0A4
:1024D00083E090E00E94B7231092F4011092F5017E
:1024E0001092F6011092F70160E084E090E00E9403
:1024F000B72360E081E290E00E94B72360E085E0CE
:1025000090E00E94B72360E086E090E00E94B7234D
:102510006FEF87E090E00E94B72340E050E0BA01FF
:1025200088E090E00E94C92360E08DE090E00E9486
:10253000B72340E050E0BA0188E190E00E94C9234F
:1025400060E087E190E00E94B72340E050E0BA01EC
:102550008CE190E00E94C92360E080E290E00E945C
:10256000B72340E050E0BA0188E190E00E94C9231F
:1025700040E050E0BA018FE090E00E94C92340E0C3
:1025800050E0BA0183E190E00C94C9238F929F92AE
:10259000AF92BF92CF92DF92EF92FF920F931F9371
:1025A000CF93DF9300D000D0CDB7DEB78C016B01A5
:1025B000FB01F280FF2009F4E0C282519F45409761
:1025C00008F006C28FEF93E00E94A9232EEEF22EB0
:1025D000F00E06E311E08823F9F0F12C8F2D0F9017
:1025E0000F900F900F90DF91CF911F910F91FF905F
:1025F000EF90DF90CF90BF90AF909F908F90089515
:102600000115F4E01F0749F3C8010E94A9238111B5
:1026100001C0FA940F5F1F4FF110F2CF19821A8296
:102620001B821C82BB24BA9478012FEFE21AF20AB3
:10263000C8010E94A92389831A82882371F28130FC
:1026400009F048C0680142E0C40ED11CC7010E94D5
:10265000A923E82E8A83882309F4BFCFC6010E94EC
:10266000A923F82E8FEF8E0D833068F4680153E0B4
:10267000C50ED11CFB82FF2021F0CE0101960E94E5
:10268000B4118601D1CF84E0E812FBCF680194E059
:10269000C90ED11CC80103960E94A923FF2009F48A
:1026A0009CCF882309F499CF8150990BB89E900153
:1026B000B99E300D1124EF2DE150FF0BCF01820F99
:1026C000931F0197F0F2EFE9FFE03197F1F700C0B7
:1026D0000000F7CFCE0101960E94B4116701D1CF5F
:1026E00081E00E94BE060E94670677CF81E00E94CB
:1026F00083060E94670672CF82E0F3CF82EE0E94CB
:102700004F08B0C188E193E00E946B0988E193E033
:102710000E945609A7C182EE0E944F0887E50E94D9
:102720008E10A0C186EE0E948E1088E1F8CFE6E000
:10273000EE1AF108B5C187E2E82EF12CB1C182EEA4
:102740000E946C07C9C18CE20E948E108091970193
:10275000882309F4C1C189E30E948E10BDC188E2BB
:10276000FBCF033F4CE5140739F1A0F4083D8CE59D
:102770001807F1F0093D9CE5190751F1073DECE51B
:102780001E0709F0ADC126E241EE61EEC6010E94CE
:10279000AB1023CF053FFCE51F07B1F088F0063FE3
:1027A0004CE5140709F09CC127E245EE66EEEECF3A
:1027B00027E245EE65EEEACF26E241EE60EEE6CF97
:1027C00027E245EE64EEE2CF26E241EE62EEDECF96
:1027D00028E241E0EFCF80910202806106305CE5A3
:1027E000150709F487C008F48CC08091020280624A
:1027F00081C0809102028D7F0C309CE5190709F49D
:1028000079C070F4809102028C600A30FCE51F07E9
:1028100009F470C008F481C0809102028E7F6AC002
:1028200080910202877F0E304CE5140709F462C0E4
:10283000809102028B7F0F301C4508F45BC08091B1
:1028400002028F7E57C00B3F8CE5180709F45DC06C
:1028500030F50331ECE51E0709F46DC078F4013161
:102860002CE5120709F463C002311C4509F075C15B
:102870000E94E80C809102028F773CC005315CE534
:10288000150709F460C008F474C0809103028160E8
:102890000A3F1C4509F061C1809303025EC10F3FEE
:1028A000ECE51E0709F44BC088F4809103028D7F8C
:1028B0000D3F2CE5120781F3809103028E7F0E3FBE
:1028C0001C4550F3809103028360E6CF01305DE543
:1028D000150709F457C008F442C060E002301D45F6
:1028E00009F03BC18EE090E00E94B72336C1809191
:1028F000020281608093020230C1809102028460F2
:10290000F9CF809102028860F5CF80910302826046
:10291000C3CF809102028064EDCF0E94E80C8091C9
:1029200002028068E7CF809102028F7DE3CF809121
:1029300002028F7BDFCF80910202837FDBCF809109
:1029400003028C7FA9CF8091020282FB992790F924
:1029500021E0922790FB82F990FB83F9CBCF809105
:102960000302982F909591708E7F892B90FB81F9AF
:1029700093CF0E94E80C90910202892F97FB87F970
:102980008058B8CF61E0AECF0631ECE51E0709F004
:1029900010C18091F2018A7A91E009F490E090935D
:1029A000980169E2811165E386E791E00E94D6040F
:1029B0000E94110512CE0E94E80CFFEF24E34CE0C8
:1029C000F15020404040E1F700C000000E946A1032
:1029D00000315FE5150709F483CE01318FE5180753
:1029E00009F48ACEC801815E9C45059740F46FE1E9
:1029F000600F6093F8018CE090E00E94B72317FF0E
:102A0000B0CEF6018281882309F46AC0E091040205
:102A1000F091050280E0309721F00190F081E02DE7
:102A2000099586958170809397019091F801913076
:102A300029F4882319F089E30E948E108091F20115
:102A4000809396011092F2018091F801813009F48F
:102A500059CE882309F452CE823009F45CCE8430FA
:102A600009F460CE8FE39CE90197F1F700C0000004
:102A70004801E89497F89CE0A92EB12CC4010A2CD7
:102A800002C0969587950A94E2F78F7009F453CEA9
:102A9000E82EF12C8A3008F04ACE9DE1E90EF11CB7
:102AA000C7010E946B09C7010E945609F4E0AF1AE2
:102AB000B1082CEFA2162FEFB20601F78091F801B2
:102AC000813009F440CE882309F439CE823009F4EC
:102AD00036CE843009F443CE809196018093F20182
:102AE000F601F280FF2009F454C010926002023017
:102AF000FCE51F0708F448CF06312CE5120730F03B
:102B0000C8018A5F9C45099708F03ECF0E94800962
:102B1000909303028093020200314CE5140709F4FC
:102B200002CF08F090CE08308CE5180709F4F1CEFA
:102B300008F05FCE0430ECE51E0709F4DECE08F0A5
:102B40004ACE02302CE5120709F4D1CE8091020260
:102B5000826003301C4509F4CDCE609102021091D1
:102B6000030284E090E00E94B723612F81E290E0AD
:102B70000E94B7230E94E80C30CD00319FE5190771
:102B800009F4B4CD0131EFE51E0709F038CF82E03A
:102B9000AECDFF24F39406311C4509F01FCD809182
:102BA000980169E2811165E386E791E00E94AC0437
:102BB000FFCE01152CE5120709F4FDCE0E3D1C4594
:102BC00009F00CCD0E945C1208CD0F931F93CF9398
:102BD000DF9300D000D000D0CDB7DEB78C0190934A
:102BE0009D0180939C011B821C821D821E828EEFA0
:102BF00089838A8381E08B830E94A00481609D8306
:102C00008C83011580E2180708F5C8010E946B0942
:102C10008FE39CE90197F1F700C000000E94A00437
:102C200081609D838C831B82011590E21907A8F4B3
:102C3000C8010E94560926960FB6F894DEBF0FBE53
:102C4000CDBFDF91CF911F910F910895BE016F5FAE
:102C50007F4FC8010E94C612DBCFBE016F5F7F4F5E
:102C6000C8010E94C612E7CFCF92DF92EF92FF9287
:102C70000F931F93CF93DF93182F062FC0906102FD
:102C8000D0906202E0906302F09064028091F401BF
:102C90009091F501A091F601B091F701C82AD92AC7
:102CA000EA2AFB2ACFE1D0E0D701C6010C2E04C0EE
:102CB000B695A795979587950A94D2F780FF12C08D
:102CC000402F612F8C2F0E948E098130910551F089
:102CD000DF91CF911F910F91FF90EF90DF90CF90F8
:102CE0000C94E515219700F7402F612F80E00E949A
:102CF0008E09EECF4F925F926F927F928F929F924A
:102D0000AF92BF92CF92DF92EF92FF920F931F93F9
:102D1000CF93DF9300D000D00F92CDB7DEB76C0118
:102D2000FC0183819481892B31F0808191818923F9
:102D30008F3F09F0E3C20F900F900F900F900F900C
:102D4000DF91CF911F910F91FF90EF90DF90CF9087
:102D5000BF90AF909F908F907F906F905F904F90BB
:102D600008950E94930B182F682F89819A810E94E1
:102D70007F0569817A81812F0E94ED09B6010E9449
:102D8000C612811120C08091EF018770A1F2F60177
:102D90008281882381F282E00F900F900F900F9034
:102DA0000F90DF91CF911F910F91FF90EF90DF90E7
:102DB000CF90BF90AF909F908F907F906F905F90DB
:102DC0004F900C94A606F601828100811181882320
:102DD000D9F1C8010E94930BF82E682FC8010E94F8
:102DE0007F05B8018F2D0E94090A8C01882EF601FB
:102DF000F280A580A2943FE0A3228091EF0187702A
:102E0000A1F0EF2CFF2091F0812F807F803421F002
:102E100080E2800F883048F082E00E94A606809110
:102E2000EF018770EE24E3948111E12CB12EB2946E
:102E30002FE0B222FBE0FB1508F440C0EB2DF0E0E0
:102E4000EB5FFB4D0C947823C8010E945605F82EC9
:102E5000C8CF212F2F70A22E107F19F0A29490EFCF
:102E6000A922FF20C9F0AA2069F080E2800F8830F3
:102E700010F081100BC08091F201A82AA092F201FB
:102E80000E941105802F0E944F0818C08091F10107
:102E9000A82AA092F101F4CF802F0E946C07AA20EB
:102EA00069F0A094005E083010F081103BC0809162
:102EB000F201A822A092F2010E941105EB2DE85028
:102EC000FF0B349710F40E940D06EE2009F433CF67
:102ED0008091EF0180FD2FCFF601128285958595B7
:102EE00085950E94BE06C6010E947A168091EF0168
:102EF0008595859585950F900F900F900F900F9069
:102F0000DF91CF911F910F91FF90EF90DF90CF90C5
:102F1000BF90AF909F908F907F906F905F904F90F9
:102F20000C9483068091F101A822A092F101C4CFF4
:102F3000312F3F70932E107F103219F0929480EF52
:102F40009822882071F081E0881661F1FF20B9F1A4
:102F5000AA2071F1F601858180FF94CF8F7085835F
:102F600027C0FF2091F09091F301892D892BA110AA
:102F700003C00E94D705A2CFE1E0AE12FACF8917B5
:102F800009F49CCF8093F30199CFA11006C00E9451
:102F90000B05892D0E94CC0591CFF1E0AF1609F405
:102FA0008DCFF5CFFF2031F025E02A1508F486CF2C
:102FB000892DDFCF34E03A1508F480CFEACFAA207C
:102FC00041F3F9E38F1293C12FEF37EE83E02150E5
:102FD00030408040E1F700C0000089C1812F869514
:102FE0008695837061F0813009F068CFC8019370D5
:102FF000F11002C090E080E00E94E1055FCFC801BF
:103000009370F11002C090E080E00E94F70556CF67
:10301000802FFF2039F00E94E7070E9419060E94C6
:1030200019064CCF0E94E906FACF812F837009F070
:1030300066C0F11043CF802F829586958770880FE8
:10304000880F602F6F70462E512C712C612C082E2A
:1030500004C0440C551C661C771C0A94D2F740E04F
:1030600050E0BA0104FF0FC04FE050E060E070E0B4
:1030700004C0440F551F661F771F8A95D2F74095ED
:10308000509560957095812F8695869583708230D6
:1030900019F1D8F40091F4011091F5012091F60195
:1030A0003091F701813069F0442955296629772943
:1030B000CB01BA0160237123822393230E94DF0690
:1030C000FDCE402A512A622A732ACB01BA01642913
:1030D000752986299729F2CF442955296629772908
:1030E0000091F4011091F5012091F6013091F70162
:1030F000CB01BA016027712782279327DFCF8695FE
:10310000FF2011F0812F8170882309F4D7CE802F02
:10311000829586958770880F880F602F6F70462E76
:10312000512C712C612C082E04C0440C551C661CBB
:10313000771C0A94D2F740E050E0BA0104FF0FC0B8
:103140004FE050E060E070E004C0440F551F661F80
:10315000771F8A95D2F74095509560957095812F8D
:10316000869586958370823019F1D8F400916102BA
:10317000109162022091630230916402813069F003
:103180004429552966297729CB01BA016023712387
:10319000822393230E945D0691CE402A512A622AFF
:1031A000732ACB01BA016429752986299729F2CFA0
:1031B00044295529662977290091610210916202FC
:1031C0002091630230916402CB01BA01602771271C
:1031D00082279327DFCF1F70FF2029F0812F0E94C5
:1031E000BE06802FC6CE802F0E94CC05812F0E9464
:1031F000830664CE802F92EF891609F450C098158B
:1032000078F0E0EF8E1619F1F1EF8F1609F43FC058
:10321000FF2009F467C0A11035CE812F8F713CC00B
:1032200023EF821609F440C034EF8312F1CFFF2060
:1032300009F44DC01F71812F0E94BE06E8E01E9F59
:10324000C001112483608093EF01812F25C0FF20EE
:10325000C9F084E08A1508F431CE1F7161E070E096
:1032600080E090E004C0660F771F881F991F1A95B1
:10327000D2F70091610210916202209163023091B5
:103280006402A4CF95E09A1508F418CEE6CF812FFA
:103290008F71FF2009F4ABCF0E94BE060FCE812FA5
:1032A0008F71FF20C9F3A3CF60E070E0CB01FF2056
:1032B00009F470CF1F7161E070E080E090E004C01D
:1032C000660F771F881F991F1A95D2F763CF81E089
:1032D0000E94A606F1E0FA1508F0F0CD82E00E9407
:1032E000A606ECCDAA2039F0893309F46DCE802FE3
:1032F0000E946C07E3CD812F8F7179CF85E0DE01CD
:10330000119601900D928A95E1F7F601228189814B
:103310009A81211126CD0E945605182F2ACD1F9380
:10332000CF93DF938091A801807FA9F48091A501BC
:10333000882389F08091DA01D091A9016091A301DD
:103340007091A401A091A601B091A701C62FC72337
:1033500016E0D81304C0DF91CF911F91089590E03B
:10336000109711F0CF3F19F401968770F2CF189F94
:103370009001199F300D1124F901E655FE4F41814E
:103380004713F2CF40814613EFCF42814111ECCF7A
:10339000438154814A1B5B0B483C510528F78091BF
:1033A000A8018F7080618093A801F901E155FE4F5B
:1033B00080818F708061808383EA91E00E947A1619
:1033C000DF91CF911F910C94AD05AF92BF92CF9238
:1033D000DF92EF92FF920F931F93CF93DF93CDB7BE
:1033E000DEB761970FB6F894DEBF0FBECDBF8C017C
:1033F00085E0F801DE011D9601900D928A95E1F7B6
:10340000F80180819181E28023EAA22E21E0B22E90
:103410006091A6017091A7016115710509F43EC183
:103420003091A3014091A401232F24232F3F09F4BD
:1034300035C1C380D480F090A501F601E61BF70BDF
:10344000FF2009F4FBC02091A801522F507FE83CD7
:10345000F10508F0BBC0511178C0FE2C491321C002
:1034600038131FC0E1101DC02F7020612093A801E8
:10347000C5010E947A168091A801F80185838F2DDD
:1034800061960FB6F894DEBF0FBECDBFDF91CF912E
:103490001F910F91FF90EF90DF90CF90BF90AF9072
:1034A0000895CD2829F0282F29232F3F09F014C192
:1034B00020E0F22FF170DF2E20FF3DC02091DA01D5
:1034C0004091A90156E0241315C08D879E878D85F4
:1034D0009E850E94D50B292F22952F702230F8F05F
:1034E000243020F59F70F9F0F8019581907FD9F490
:1034F000D12C1FC030E0529FF001539FF00D1124DA
:10350000E655FE4F6181961306C06081861303C0A5
:103510006281E61210C02F5F3F4F2770D4CF9F709B
:1035200011F0882329F3805E883010F3C8010E94CF
:103530007A16FD2CA4CFEE2009F4A1CF8091A8012A
:1035400081608093A801F12C9ACF491312C03813DF
:1035500010C0E1100EC0F8012583C8010E947A1640
:1035600086E0F801A3EAB1E001900D928A95E1F7B7
:1035700086CF8D879E878D859E850E94DF0B882351
:1035800009F1EE20F9F08091A801803270F02091CD
:10359000A3013091A40138872F831986DB86CA8660
:1035A0008C87CE0107960E947A1686E0F801A3EA7E
:1035B000B1E001900D928A95E1F70E948F19FF24E6
:1035C000F3945DCFC8010E947A16F9CF51110AC059
:1035D00083EA91E00E947A1686E0F50111928A95BD
:1035E000E9F7B1CF49130FC038130DC0E1100BC07C
:1035F000F8012583C8010E947A1686E0F501119230
:103600008A95E9F73CCF8D879E878D859E850E94A0
:10361000DF0B8823B9F2EE20A9F28091A801803255
:1036200020F22091A3013091A4013A8329831B82C7
:10363000DD82CC828E83CE010196B5CFE83CF105C8
:10364000E0F6FE2CEE2009F4BDCF491316C0381366
:1036500014C08091A80180FD83CF982F907F09F43A
:103660007FCFF8018583903F09F477CF982F907F23
:10367000905F8F70892B858370CF8D879E878D8516
:103680009E850E94DF0B811190CF8091A8018160FF
:103690008093A801C8010E947A16F1CEEE2009F4A9
:1036A00091CF8D879E878D859E850E94DF0BF82E9A
:1036B000882309F487CF86E0F801A3EAB1E00190FE
:1036C0000D928A95E1F78091A3019091A4010E9447
:1036D000D50B0E948F19D3CE21E02E25EACE1F9361
:1036E000CF93DF93CDB7DEB767970FB6F894DEBF01
:1036F0000FBECDBF342F4B8B252F5C8B6D8B7E8BFC
:103700008F8B8E899F8961111092F1011A8A198A13
:103710003D872E876F87998B888B86E0FE013D96CB
:10372000DE01179601900D928A95E1F7CE0107967A
:103730000E94E519882389F016E08091DA019091C2
:10374000A901891349C067960FB6F894DEBF0FBE72
:10375000CDBFDF91CF911F91089586E0FE0137968E
:10376000DE01119601900D928A95E1F78A859B857D
:10377000892B11F38F81988589238F3FE9F220915E
:10378000A90130E0C9010196877099274091DA01BB
:103790004817190671F40E94E80C1092A9011092C2
:1037A000DA0186E0E3EAF1E0DF011D928A95E9F7AC
:1037B000C3CF96E0929FD001939FB00D1124A655E0
:1037C000BE4FFE01319601900D929A95E1F78093DC
:1037D000A9010E94AD05B0CF819FC001112486557B
:1037E0009E4F0E94E519882309F4ADCF8091DA013C
:1037F00090E00196877099278093DA019ECF1F92FF
:103800000F920FB60F9211242F933F934F935F9314
:103810006F937F938F939F93AF93BF93CF93DF93D8
:10382000EF93FF93D091E900DF708091EC00C82FF7
:10383000C17080FDC0E81092E9008091F000877FA0
:103840008093F00078940E94FD0C1092E900809122
:10385000F00088608093F000CD2BCF70C093E9001A
:10386000FF91EF91DF91CF91BF91AF919F918F9198
:103870007F916F915F914F913F912F910F900FBE6C
:103880000F901F9018951F920F920FB60F92112450
:103890002F933F934F935F936F937F938F939F9358
:1038A000AF93BF93EF93FF938091E10082FF09C034
:1038B0008091E20082FF05C08091E1008B7F8093C0
:1038C000E1008091DA0080FF24C08091D80080FF61
:1038D00020C08091DA008E7F8093DA008091D90039
:1038E00080FF9BC080E189BD82E189BD09B400FEF3
:1038F000FDCF81E08093540280912F02811109C095
:103900000E9402030E94CD038091E20084608093B4
:10391000E2008091E10080FF17C08091E20080FF0B
:1039200013C08091E2008E7F8093E2008091E200DC
:1039300080618093E2008091D80080628093D800FB
:1039400019BC85E0809354028091E10084FF29C076
:103950008091E20084FF25C080E189BD82E189BDBC
:1039600089B5982F917080FFFBCF8091D8008F7D13
:103970008093D8008091E1008F7E8093E100809158
:10398000E2008F7E8093E2008091E200816080936C
:10399000E20080915502882309F445C084E08093B9
:1039A00054028091E10083FF27C08091E20083FFF1
:1039B00023C08091E100877F8093E10082E08093C3
:1039C0005402109255028091E1008E7F8093E100B5
:1039D0008091E2008E7F8093E2008091E20080611E
:1039E0008093E20042E060E080E00E949B038091CF
:1039F000F00088608093F000FF91EF91BF91AF914C
:103A00009F918F917F916F915F914F913F912F91F6
:103A10000F900FBE0F901F90189519BC1092540272
:103A200010922F0276CF8091E30087FD93E0909370
:103A30005402B7CFCDB7DEB7E3970FB6F894DEBF29
:103A40000FBECDBF84B7877F84BF0FB6F894A8950B
:103A500080916000886180936000109260000FBECA
:103A600080E890E00FB6F894809361009093610035
:103A70000FBE85B7806885BF85B7806885BF8CE835
:103A800094E090937501809374010E9402030E9458
:103A9000CD038091E20084608093E200789480916D
:103AA00054028823A1F01091E9001F709091EC005E
:103AB000892F817090FD80E8182B1092E900809189
:103AC000E80083FD0E94FD0C1F701093E90082E066
:103AD00084BD93E095BD9AEF97BD80936E0086EF0D
:103AE0000E94C50887EF0E94C50881E30E94C508AF
:103AF00083E30E94C50882E30E94C50886E30E9412
:103B0000C50886E60E94C50887E90E94C50884E3C7
:103B10000E94C50885E30E94C50886EC0E94C5087E
:103B2000ECEFF1E082E092E0A7E0B2E011921D92AA
:103B30008E179F07D9F70E940F118FE39CE9019719
:103B4000F1F700C000000E940F118091070280FF72
:103B500017C06FEF82E290E00E94B7236FEF83E21D
:103B600090E00E94B7236FEF84E290E00E94B723B9
:103B70006FEF7FEF90E080E00E94D5230E946A10F3
:103B800090E080E00E94B1238B3E9E4F11F00E9496
:103B90005C128CE090E00E94A92390E0B0E0A0E0ED
:103BA0008093F8019093F901A093FA01B093FB017F
:103BB00082E290E00E94A923873109F00EC583E2DA
:103BC00090E00E94A923813609F007C584E290E0C5
:103BD0000E94A9238A3809F000C590E080E00E9485
:103BE000B1238B3E9E4F11F00E945C1282E090E068
:103BF0000E94A923809320020E94800990930302CF
:103C00008093020283E090E00E94A923682F70E075
:103C100090E080E00E94DF0665E671E0F1E18F2E22
:103C2000F2E09F2E21E631E0E3E6F1E041E050E0F2
:103C30001191812F82958F7090E0DC019196FC901C
:103C400091971F70E12E6A0101C0CC0C1A95EAF71A
:103C50000C2D00950F2191960C93919792961C91A3
:103C600092971C2992961C93D901FD909D010F2DCE
:103C700002950F7010E0D8019196BC90BF2DBF70D7
:103C8000FB2E6A0101C0CC0CBA95EAF7DC2CD0946B
:103C9000DB20D8019196DC9291979296DC909297D6
:103CA000DC289296DC92DC0190968C9190E002C028
:103CB00095958795EA94E2F78170D80190960C91DA
:103CC00010E002C015950795FA94E2F790E000FD28
:103CD00092E0892BD4018D934D016E177F0709F077
:103CE000A7CF82E091E09093050280930402E8E17F
:103CF0004E2E512C87E092E0B6E0B80FBBAB80911E
:103D0000540200E112E1853009F408C20E940F114B
:103D1000882359F08FB7F8944091290250912A02D4
:103D200060912B0270912C028FBFE1E2F2E0A7E0DC
:103D3000B2E010E000E0302F8D919191981709F4D6
:103D4000FCC1292F282790E0FF24F394422F4F2114
:103D500009F4EEC199A73AA78F2191E009F490E008
:103D60009BA70E94A0048160782F9DA78CA749A5DE
:103D70005AA56BA58DA50E946F1BF801EF5DFD4F45
:103D80008081F826F0823FE0E32E32E0F32E0DE052
:103D900012E041E6A42E41E0B42E53E6852E51E018
:103DA000952E61E1C62E62E0D62E312C212C74E0D6
:103DB000672E712CD601ED916D01EE0FEE0FD4013F
:103DC0008D914D01A82FA295AF70B0E090962C91E7
:103DD00030E08F7002C0359527958A95E2F7217003
:103DE0003327D5014D915D01A42FA295AF70B0E0AE
:103DF00090968C9190E04F7002C0959587954A956A
:103E0000E2F7AC014170552780FF02C042E050E06C
:103E1000242BE22BD6011197EC93EF70F0E0EF5AD0
:103E2000FE4F8081F7019081890F808320E08430EC
:103E30004CF0D8018C918F5F8C9360E0832D0E94B1
:103E4000341621E0F70180818D3F4CF4D8018C912C
:103E500081508C9361E0832D0E94341621E0F7019C
:103E60008081082E000C990BB3010E946423D701B6
:103E70008D937D01222A0F5F1F4FB1E03B1274C169
:103E8000222059F08FB7F8944091290250912A02CC
:103E900060912B0270912C028FBF86E0E9E1F2E085
:103EA000DE01119601900D928A95E1F7F0901B02C8
:103EB000E0901C0210911D0200911E0210921B0244
:103EC00010921C0210921D0210921E028F2D8E293C
:103ED00009F448C080911702909118020E94910441
:103EE0009C0190911602992309F49EC32333310556
:103EF000C8F19F3F19F09F5F90931602FF2059F081
:103F00000E94C7079FEF1F140CF491E0899F802D3A
:103F1000112480931B02EE2059F00E94C7079FEFE7
:103F20001E140CF491E0899F802D112480931C02B3
:103F300030911B023323B1F020911C02222391F017
:103F400045EB3403C0011124992309F410C1909367
:103F50001B0245EB240390011124332309F40BC108
:103F600030931C02812F802B09F448C080911402E9
:103F7000909115020E9491049C0190911302992343
:103F800009F44DC325363105C8F19F3F19F09F5FF5
:103F900090931302112359F00E94A5079FEF111669
:103FA0000CF491E0899F802D112480931D02002341
:103FB00059F00E94A507101614F033243A94839DFB
:103FC000302C112430921E0230911D023323B1F0A7
:103FD00020911E02222391F045EB3403C0011124ED
:103FE000992309F4CCC090931D0245EB2403900162
:103FF0001124332309F4C7C030931E0280911B02A1
:1040000090911C02892B90911D02892B90911E0288
:10401000892B11F00E94190686E0FE013196A9E174
:10402000B2E001900D928A95E1F70E940D06909101
:104030001F02891721F00E940D0680931F028091B4
:104040005402843009F05BCE83E08093E9008091D4
:10405000E80082FF54CE8091E80090E085FF06C022
:104060000E942103882309F492C091E08091E80026
:104070008B778093E800992309F441CE00912D02BB
:1040800010912E0289810115110509F49CC08E3F03
:1040900009F0E5C08A81833020F08550833008F034
:1040A000DEC0EA81E83008F0DAC0F0E0EF5EFB4DF8
:1040B0000C94782380915402843011F110920602FE
:1040C000E0E40FB6F894A895409260000FBEE0932C
:1040D000600083B7817F846083BF83B7816083BFC3
:1040E0007894889583B78E7F83BF0FB6F894A89590
:1040F00080916000886180936000109260000FBE24
:1041000080915302882351F00E940F11E7E0F2E002
:10411000819181114CC22BA92E13FACF80915402A8
:10412000853009F4C7CF0E94E80C0E940D06EECD41
:104130009F5FFF0C953009F009CE0F5F1F4F0630CF
:10414000110509F0F8CD8FEF8EA78FA718AA0E944E
:10415000A0048160782F9AAB89AB4EA55FA568A9B2
:104160008AA90E946F1B0FCE3324339423CE81E0A3
:1041700080931B02EECE81E080931C02F3CE81E09F
:1041800080931D0232CF81E080931E0237CF00E280
:1041900010E0CE0101967C018091E80085FD0AC007
:1041A0008091E8008B778093E8000E9421038823A8
:1041B00099F35BCF8091F100D7018D937D01015080
:1041C000110951F752CF8D3009F498C0B8F48430FA
:1041D00009F47BC048F4823049F108F067C08130AF
:1041E00009F18FEF89833BC0863009F484C008F45D
:1041F00077C08C30B1F780E18A8331C0813109F416
:10420000DAC040F48F3009F4A8C008F47BC00E94E3
:10421000030C25C0833109F4F9C008F4CEC08E3FE9
:1042200001F73FCF1A8289E08B8319C08A818230DF
:1042300009F4ECC1833099F0813099F62FB7F894E6
:104240006091290270912A0280912B0290912C0298
:104250002FBF0E947E236B837C838D839E838091FE
:104260005402843009F04BCD1091E9001F709091F9
:10427000EC00892F817090FD80E8182B82E08093FC
:10428000E9008091E80080FF0DC050E040E060E26E
:1042900070E0CE0101960E9452038091E8008E7773
:1042A0008093E8001F701093E90029CD8A81823045
:1042B00009F097CF6B817C818D819E810E947E2346
:1042C00085E290E00E94B723CACF4C816B818A813E
:1042D0000E94BE099827892798279E838D83BFCF88
:1042E0002D813E813227232732274C816B818A81A1
:1042F0000E944C0CB4CF0E94810CB1CF82E08A8323
:104300008AEC92CF8C81C82ED12CBDE1CB16D10482
:1043100008F0A5CF0A811B81102701271027FE0175
:1043200031967F01CE0EDF1EC8018A5C9E4FCE14EF
:10433000DF0409F494CF0A3CA2E01A0750F40E946B
:10434000A923F70184830F5F1F4FBFEFEB1AFB0A0E
:10435000EBCFD70114961C92F6CF8091000190917B
:104360000101892B09F47BCF8C81C82ED12CEDE182
:10437000CE16D10408F073CF0A811B8110270127C4
:104380001027CE0101967C01C00ED11EC8018A5CA7
:104390009E4FC016D10609F462CF0A3CA2E01A076C
:1043A00020F4F70164810E94B723FFEFEF1AFF0AA0
:1043B0000F5F1F4FEBCF84E01FCF8C81C82ED12C15
:1043C0002DE1C216D10408F04ACF0A811B811027C3
:1043D00001271027CE0101967C01C80ED91EC80105
:1043E0008696CE14DF0409F43ACF003F110550F44D
:1043F0000E94A923F70184830F5F1F4FBFEFEB1AC1
:10440000FB0AEDCFD70114961C92F6CF8C81C82EF3
:10441000D12CEDE1CE16D10408F021CF0A811B8109
:10442000102701271027003F110508F018CF20EFB3
:1044300030E0201B310B2C153D0508F410CFCE01C8
:1044400001967C01C00ED11EC80186960C151D0573
:1044500009F405CF003F110528F4D70114966C919B
:104460000E94B723BFEFEB1AFB0A0F5F1F4FECCF81
:1044700088E0EDE0F1E0DE01919601900D928A95E1
:10448000E1F782E089831A821B821C8288E0FE01A8
:10449000B196DE01159601900D928A95E1F7DFCE77
:1044A00080E5898381E08A831B821C82D8CE8C813F
:1044B000682F70E0762F66278B81860F972F911DCE
:1044C000092E000CAA0BBB0B25E0880F991FAA1F11
:1044D000BB1F2A95D1F7AC01BD01405E5F4F6F4F06
:1044E0007F4F481759076A077B0708F4B8CE803515
:1044F000E1E09E07A105B10508F0B1CE4135F1E03C
:104500005F076105710520F040E551E060E070E073
:10451000481B590BBC0166597C4FCE0101960E9485
:1045200099239DCE1B810C8140E0602F812F0E943A
:104530008E099827892798279A83898341E0602FDD
:10454000812F0E948E099827892798279C838B8327
:1045500086CE2E813F813227232732274D816C81E1
:104560008B810E94130C7BCE4EE150E06FEF70E028
:10457000CE0103960E94A2238091000189830A83C1
:104580006ECE81E090E090932E0280932D0282E324
:1045900090E090932802809327020E94A0045FCEAF
:1045A0008091000189830A83809127023DCE09BD55
:1045B00019BD09B400FEFDCF8091D8008F7D809396
:1045C000D8008091E00082608093E0008091E0005C
:1045D00081FDFCCF0E94E80CA1CD60E085E290E077
:1045E0000E94B7230E94810C0E94030C67E182E2C3
:1045F00090E00E94B72361E683E290E00E94B72337
:104600006AE884E290E00E94B723E7CA85E290E07E
:104610000E94A9231B821C821D828E8320CE2D32F4
:10462000314008F0B4CCEACC2D32314008F063CCF4
:1046300099CC78941F921FB61F9211248F939F9349
:10464000AF93BF938091290290912A02A0912B02EF
:10465000B0912C020196A11DB11D80932902909367
:104660002A02A0932B02B0932C02BF91AF919F918D
:104670008F911F901FBE1F9018951F921FB61F92FB
:1046800011248F939F93AF93BF9380910602811162
:1046900013C08091290290912A02A0912B02B0911F
:1046A0002C024196A11DB11D8093290290932A02EC
:1046B000A0932B02B0932C02BF91AF919F918F9149
:1046C0001F901FBE1F90189597FB072E16F400949D
:1046D00007D077FD09D00E94852307FC05D03EF462
:1046E000909581959F4F0895709561957F4F08959E
:1046F000EE0FFF1F0590F491E02D0994692796278E
:1047000069277827872778270895AA1BBB1B51E1C3
:1047100007C0AA1FBB1FA617B70710F0A61BB70B31
:10472000881F991F5A95A9F780959095BC01CD01D6
:104730000895FB01DC0102C005900D9241505040EC
:10474000D8F70895DC0101C06D9341505040E0F767
:104750000895F999FECF92BD81BDF89A992780B549
:104760000895A8E1B0E042E050E00C94DD23262F4C
:10477000F999FECF92BD81BDF89A019700B4021657
:1047800039F01FBA20BD0FB6F894FA9AF99A0FBE05
:1047900008950396272F0E94B8230E94B723252F40
:1047A0000E94B823242F0C94B8230196272F0E942F
:1047B000B8230C94B723DC01CB01FC01F999FECF9F
:1047C00006C0F2BDE1BDF89A319600B40D92415099
:1047D0005040B8F70895F894FFCFEE0BEE0BF70BAF
:1047E000F70BF90BF70BF70BF70BEE0BEE0BFE0BC2
:1047F000F70BF70BFE0BE20D0A0E5D0E0A0E5D0EB7
:104800003D0E750E5D0E7D0F8A0F2917291798171B
:104810009817EE1708185E175E171518EB18FA1898
:10482000FA183822502257229222A922B422C122F9
:02483000D02294
:1048320001008E042A100910051001100172CFED3B
:10484200E434D714E9818283E200E900EA00B5008A
:10485200B600B700CD008301CC008A019201940119
:104862002102230224022502260227022A02B30081
:10487200B4006F007000F6F7313332366697343584
:10488200C600FF0100010000FFFF0000010001FF60
:1048920000929394F54022BC8A016801AC00CC04DA
:0448A200E50405051F
:00000001FF
