:100000000C94B7020C94FE020C94FE020C94FE02B7
:100010000C94FE020C94FE020C94FE020C94FE0260
:100020000C94FE020C94FE020C94C51A0C94811AD6
:100030000C9439200C94FE020C94FE020C94FE02E7
:100040000C94FE020C94FE020C94FE020C94FE0230
:100050000C94FE020C9415200C94FE020C94FE02EB
:100060000C94FE020C94FE020C94FE020C94FE0210
:100070000C94FE020C94FE020C94FE020C94FE0200
:100080000C94FE020C94FE020C94FE020C94FE02F0
:100090000C94FE020C94FE020C94FE020C94FE02E0
:1000A0000C94FE020C94FE020C94FE02050109025F
:1000B000A10185020901A100050919012905150001
:1000C00025019505750181029501750381010501E1
:1000D000093009311581257F950275088106093897
:1000E0001581257F950175088106050C0A380215D2
:1000F00081257F950175088106C0C005010980A191
:1001000001850319012AB700150126B7009501756D
:10011000108100C0050C0901A101850419012AA064
:1001200002150126A002950175108100C005010984
:1001300006A1018505050719E029E71500250195A8
:1001400008750181020507190029EF1500250195A1
:10015000F0750181020508190129059505750191C0
:1001600002950175039101C00660FF0961A10109B3
:1001700062150026FF0095207508810209631500AD
:1001800026FF00952075089102C005010906A1010E
:10019000050719E029E71500250195087501810279
:1001A0009501750881010507190029FF150026FF33
:1001B0000095067508810005081901290595057542
:1001C000019102950175039101C00000000000003B
:1001D000000000000000000000000000000000001F
:1001E00000000000000000000000000000007E0F82
:1001F00000D4FFFFFFC700000078000000000000EF
:1002000000002A2B28000000000000000000000071
:10021000000000000029000000002C1E34202122D4
:1002200024342627252E362D3738271E1F2021223D
:10023000232425263333362E37381F0405060708B6
:10024000090A0B0C0D0E0F101112131415161718A6
:10025000191A1B1C1D2F3130232D350405060708E4
:10026000090A0B0C0D0E0F10111213141516171886
:10027000191A1B1C1D2F3130354C29001E001F0080
:100280002000210022002300240025002600270052
:100290002D002E0031002A002B0014001A00080047
:1002A000150017001C0018000C00120013002F008E
:1002B000300031000000390004001600070009007A
:1002C0000A000B000D000E000F0033003400310057
:1002D00028000000E10064001D001B00060019005A
:1002E000050011001000360037003800E50001510C
:1002F0000000E000E300E2000000000000002C002D
:10030000000000000000E600E7000151E4000000EA
:1003100001003A003B003C003D003E003F00400031
:100320004100420043004400450001004C00010030
:1003300001000100010001000100010001000100B5
:1003400001000100010001000100000001000100A6
:100350000100010001000100010001000100010095
:100360000100010001000100000001000100010086
:100370000100010001000100010001000100010075
:100380000100010001000000010001000100000067
:10039000000000000100000000000000010001005A
:1003A0000100010000000100010001000100010046
:1003B0000100010001000100010001000100010035
:1003C0000100010001000100010001000100010025
:1003D0000100010001000100010001000100010015
:1003E0000000010001000100010001000100010006
:1003F00001000100010001000100010001000000F6
:1004000001000100010001000100010001000100E4
:1004100001000100010001000100010000000100D5
:1004200001000100000000000000010000000000C9
:1004300000000100010001000100000001000100B6
:1004400001000100010001000100010001000100A4
:100450000100010001000100010001000100010094
:100460000100010001000100010001000100010084
:100470000100010001000000010001000100010075
:100480000100010001000100010001000100010064
:100490000100010000000100010001000100010055
:1004A0000100010001000100010001000100010044
:1004B0000100000001000100010000000000000038
:1004C0000100000000000000010001000100010027
:1004D000000009025B00030100A0FA09040000010A
:1004E00003010100092111010001224000070581DB
:1004F0000308000A09040100020300000009211199
:1005000001000122220007058203200001070503E4
:100510000320000109040200010300000009211169
:1005200001000122BC000705840320000A1201100B
:100530000100000008766735610100010203010433
:1005400003300000000E0347004100310035002E4B
:10055000003000000012034700760061006C006369
:100560000068006300610000000403090400112416
:100570001FBECFEFDAE0DEBFCDBF04B603FE27C05B
:1005800080916F0290917002A0917102B0917202FD
:100590008730904BA740B04BD1F410926F0210926D
:1005A0007002109271021092720214BE84B7877F9B
:1005B00084BF0FB6F894A8958091600088618093FD
:1005C0006000109260000FBEE0E0F8E3099511E0D2
:1005D000A0E0B1E0E0E2F2E402C005900D92A036A6
:1005E000B107D9F722E0A0E6B1E001C01D92AF3615
:1005F000B207E1F70E949C1B0C94D7200C940000DA
:10060000E8EDF0E080818E7F80831092E20010920E
:10061000DA001092E100A0EEB0E08C9181608C9342
:1006200080818F77808319BCA7EDB0E08C918E7F9D
:100630008C9380818F7E808310923902089520915F
:10064000E4003091E50095E6A9012091EC00822FAD
:10065000817020FF06C08091E80080FF06C080E026
:1006600008952091E80022FD1AC080915E0288233F
:1006700089F0853089F08091EB0085FD0FC02091D5
:10068000E4003091E50042175307F9F29150E1F68A
:1006900084E0089582E0089583E0089581E008955C
:1006A000EF92FF920F931F93CF937C018B010E94D7
:1006B0001F03C82F811117C08091E80085FD0BC072
:1006C0008091E8008E778093E8000E941F038823C2
:1006D00099F3C82F08C0F70181917F018093F10041
:1006E0000150110949F78C2FCF911F910F91FF9065
:1006F000EF9008958091600287FF13C08091E80019
:1007000082FF06C08091E8008B778093E80004C0E8
:1007100080915E028111F2CF089580915E0288235C
:10072000D9F38091E80080FFF8CF8091E8008E77C0
:10073000ECCF982F9093E900242F762F50E0891763
:1007400031F07091EC002091ED005091F00021FD0E
:1007500007C09F5F973071F78093E90081E00895AB
:100760003091EB003E7F3093EB003091ED003D7F08
:100770003093ED003091EB0031603093EB007093DB
:10078000EC002093ED005093F0002091EE0027FD47
:10079000E0CF80E00895CF92DF92EF92FF920F9327
:1007A0001F93CF93DF93C8EDD0E088818F7E88833D
:1007B000E7EDF0E080818160808384E082BF81E0AA
:1007C0008093390288818E7F888302EE10E0F801E1
:1007D00010821092DA0081EEC82ED12CF601108220
:1007E00088818F77888388818068888388818F7DDE
:1007F000888319BC10925E0210925F0210925D0213
:1008000010925C0290EEE92EF12CF70180818B7F33
:10081000808388818160888342E060E080E00E947C
:100820009903F60180818E7F8083F8018081816049
:100830008083808188608083F70180818E7F8083C0
:10084000888180618883DF91CF911F910F91FF9004
:10085000EF90DF90CF900895FC0180916602909117
:10086000670286179707A0F06115710529F490912A
:10087000E8009E779093E80090E06115710551F4CF
:10088000911108C08091E80082FF34C080E0089593
:10089000BC01F2CF80915E028823C1F18530C1F1A5
:1008A0008091E80083FD30C08091E80082FDEACFAE
:1008B0008091E80080FFE1CF8091F3002091F20069
:1008C000382F6115710519F02830310558F091E085
:1008D0002830310509F090E02091E8002E77209330
:1008E000E800CBCF81918093F100615071092F5FB7
:1008F0003F4FE7CF80915E02882341F0853041F081
:100900008091E80083FFBECF81E0089582E00895E2
:1009100083E0089580E0089580913B0208959C0152
:100920004FB7F8948091350290913602A09137022A
:10093000B09138024FBF821B930B08952FB7F894E4
:100940008091350290913602A0913702B091380221
:100950002FBF089520910A012223C9F020910E0291
:1009600027FF15C0E62FE695E695E695EE31D8F41B
:10097000E80FF92FF11D677021E030E001C0220F70
:100980006A95EAF720958281282322830895FC0145
:10099000329608962191621303C0DF0111971C92D1
:1009A000E817F907B9F7089520910A012223C1F049
:1009B00020910E0227FF14C0E62FE695E695E695F6
:1009C000EE31F8F4E80FF92FF11D677021E030E007
:1009D00001C0220F6A95EAF78281822B82830895F3
:1009E000FC0132962FEF30E04191641751F02F3F18
:1009F00019F4411101C0232F3F5F3630A9F72F3F73
:100A000009F40895820F911D27FD9A95FC016283D8
:100A100008958091FB0181111092FB01089580914E
:100A2000FA019091F901892B9091F801892B80931B
:100A300062019091FB019923A1F0892B80936201BF
:100A400080910A01882341F180910E0287FF24C022
:100A50008EE1E4E6F1E090E0815000F591110E9412
:100A60000905E0911002F09111023097E1F08091B8
:100A70000A01882359F080910E0287FF07C08091F8
:100A800062018093630185E0809362010280F381BB
:100A9000E02D82E691E0099486E0DBCF21912223CC
:100AA000D9F29F5FD9CF08952FE0929F800D112436
:100AB000982F977086958695869525E0829FF00100
:100AC0001124EB53FE4F50E040E080E0219130E0F4
:100AD000092E02C0369527950A94E2F72170332734
:100AE000042E01C0220F0A94EAF7822B4F5F5F4F5A
:100AF0004530510559F708952FE0929F800D11243C
:100B0000982F977041E001C0440F9A95EAF78695B7
:100B10008695869595E0899FF0011124EB53FE4F51
:100B200090E080E070E05191DF0111979B01082E69
:100B300002C0369527950A94E2F721702195252762
:100B4000242325272C9301968530910561F708957C
:100B50008091C40190919301981301C008958F5F13
:100B60008770FACF882341F080959091F90189230D
:100B70008093F9010C940F050895882339F0909122
:100B8000F901982B9093F9010C940F05089588238F
:100B900041F080959091FA0189238093FA010C9499
:100BA0000F050895882339F09091FA01982B9093BE
:100BB000FA010C940F050895209187013091880166
:100BC0002817390771F09093880180938701E0918D
:100BD0001002F0911102309721F00084F185E02D90
:100BE00009940895209185013091860128173907CD
:100BF00071F09093860180938501E0911002F0914D
:100C00001102309721F00680F781E02D09940895B4
:100C1000E0911002F0911102309721F00190F081E3
:100C2000E02D099480E008950E949E049C0190911B
:100C30001B0280911C02982B21F030931802209304
:100C4000170290911D0280911E02982B21F0309383
:100C5000150220931402E0911002F09111023097D6
:100C600049F082E0809319020480F581E02D89E14A
:100C700092E00994089590E080E00E94F20590E0EF
:100C800080E00E94DC051092F9011092F8010E94A8
:100C90000F0586E0E9E1F2E0DF011D928A95E9F7B0
:100CA000109216021092130210928C010C941406EA
:100CB00060936B0270936C0280936D0290936E024E
:100CC0000C943B060F931F9360916B0270916C0222
:100CD00080916D0290916E028B019C01067011272C
:100CE00022273327063011052105310529F46860D4
:100CF0001F910F910C945806677FFACF0F931F93A3
:100D000041E050E060E070E004C0440F551F661FF2
:100D1000771F8A95D2F7CB01BA01609570958095BF
:100D2000909500916B0210916C0220916D023091B0
:100D30006E0260237123822393231F910F910C94E1
:100D400058069091F701809589238093F701282F09
:100D5000277071F4282F082E000C330B92171306FE
:100D600039F08595859585950E947E061092F7014C
:100D700008950F931F9341E050E060E070E004C0DD
:100D8000440F551F661F771F8A95D2F780916B021B
:100D900090916C02A0916D02B0916E028A019B014C
:100DA000082B192B2A2B3B2BC901B8011F910F913E
:100DB0000C9458066093FC017093FD018093FE0132
:100DC0009093FF010C943B0690911B02803F59F4D5
:100DD00080911C0287FF0DC010921C0291110BC064
:100DE0001092160208C0813F81F480911C021816EF
:100DF0009CF3992381F080911D0290911E02892B12
:100E000009F064C0109213020895823F49F497FFDD
:100E1000F0CF10921B0280911C028111ECCFE0CF29
:100E2000833F19F41916ACF3E4CF20911D02893FDA
:100E300029F41216F4F610921D02DBCF8A3F19F442
:100E400027FFD7CFF8CF20911E028B3F29F427FF31
:100E5000D0CF10921E02CDCF8C3F19F41216CCF3D6
:100E6000C8CF843F31F480911A028E7F80931A029A
:100E7000C0CF853F21F480911A028D7FF7CF863F46
:100E800021F480911A028B7FF1CF873F21F480916A
:100E90001A02877FEBCF883F21F480911A028F7E60
:100EA000E5CF8D3F31F480918C018E7F80938C0152
:100EB000A0CF8E3F21F480918C018D7FF7CF8F3FA3
:100EC00009F097CF80918C018B7FF0CF0895882314
:100ED000B1F19CEF980F913A38F4682F82E691E0D7
:100EE0000E94AA040C940F0590E2980F983088F4A1
:100EF000877021E030E0A90102C0440F551F8A9598
:100F0000E2F7CA0180959091FA0189238093FA0152
:100F1000E9CF9BE5980F933020F490E080E00C94AB
:100F2000F20598E5980F973120F490E080E00C945A
:100F3000DC05803F20F00E94E4060C94140608951E
:100F400080918C0180FD16C081FD16C082FD16C007
:100F5000809113028823A1F0883280F428E0829FD8
:100F6000C001112468E270E00E946020862F672B88
:100F700039F0089582E0089584E0089588E00895A6
:100F800081E0089580918C0180FD14C081FD14C022
:100F900082FD16C080911602882381F0843180F48E
:100FA00022E3829FC001112464E170E00E9460206E
:100FB000862F08958CE0089589E1089585E00895CD
:100FC00082E30895803F31F40E94C20781958093A7
:100FD0001C020895813F19F40E94C207F8CF823F96
:100FE00031F40E94C207819580931B020895833FCC
:100FF00019F40E94C207F8CF893F29F40E94A00784
:1010000080931D0208958A3F21F40E94A0078195D4
:10101000F7CF8B3F31F40E94A007819580931E0289
:1010200008958C3F19F40E94A007F8CF843F31F453
:1010300080911A02816080931A020895853F21F4FD
:1010400080911A028260F7CF863F21F480911A02C4
:101050008460F1CF873F21F480911A028860EBCF42
:10106000883F21F480911A028061E5CF8D3F31F4F1
:1010700080918C01816080938C0108958E3F21F4D2
:1010800080918C018260F7CF8F3FB9F780918C01FE
:101090008460F1CFCF93C82F882309F46FC08CEF01
:1010A0008C0F813AC0F580910A01882311F180915B
:1010B0000E0287FF1EC0EC2FE695E695E695F0E060
:1010C000EE59FE4F828190E04C2F477021E030E0D6
:1010D00002C0220F331F4A95E2F782239323892B04
:1010E00091F06C2F82E691E00E94AA040E940F0505
:1010F0000AC0E4E6F1E08AE691E02191C21789F3A3
:101100008E179F07D1F76C2F82E691E00E94D404DE
:10111000CF910C940F0580E28C0F883068F4C77073
:1011200021E030E001C0220FCA95EAF78091FA0170
:10113000822B8093FA01ECCFEBE5EC0FE33040F427
:10114000F0E0E55FFE4F808190E0CF910C94F205D6
:10115000E8E5EC0FE73150F4F0E0EE0FFF1FE25F3F
:10116000FE4F80819181CF910C94DC05C03F30F01F
:101170008C2F0E94E207CF910C941406CF91089512
:10118000F894E82FE295EF70F0E031A1282F2F704E
:1011900081E090E001C0880F2A95EAF7982F90959A
:1011A000932391A392A1892B82A37894089590917F
:1011B0000E0292FF06C0282F28712830F9F4877F8D
:1011C000846093FF06C0282F28712831F1F4877EB0
:1011D000846120910F0220FF06C0382F387138300B
:1011E000D9F4877F816021FF06C0282F287128311C
:1011F000D1F4877E816194FD877E0895282F247124
:101200002430F9F68B7F8860DCCF282F24712431BD
:1012100001F78B7E8861DDCF382F3171313019F7BE
:101220008E7F8860E0CF282F2171213121F78E7EBB
:101230008861E1CFCF93DF939C013A9521153F411F
:1012400068F5EC01CC27D170DC01AA27B270AC01A3
:10125000442754709C012227387094FF11C080E10C
:10126000CD2B09F480E0AB2B09F08062452B09F00F
:101270008064232B09F08068FB01DF91CF910994F2
:1012800081E0CD2B09F480E0AB2B09F08260452B87
:1012900009F08460232B81F38860EECFDF91CF913A
:1012A0000895CF93DF93EC010E946707CE01805E23
:1012B0009109089720F062EB75E0209711F467EC34
:1012C00075E0CE01DF91CF910C941A09CF93DF9393
:1012D000EC01805E9109089720F06DEB75E0209796
:1012E00011F462ED75E0CE010E941A098C2FDF9196
:1012F000CF910C944A08CF9384E090E00E9495200F
:10130000C82F81E290E00E949520982F8C2FCF91DA
:1013100008950F931F93CF93DF93843030F565309A
:1013200020F54F3010F5C42FD0E0CC0FDD1F2EE19B
:10133000629FC00DD11D112436E9839FC00DD11DC0
:101340001124CE0186960E949520082F10E0102FC0
:101350000027CE0187960E9495209801282BC9016D
:10136000DF91CF911F910F91089590E080E0F8CF29
:10137000462F843038F4753028F46F3018F4672F16
:101380000C94890990E080E00895CF93DF930E9448
:10139000B809EC0182389105A9F1D8F5813391059E
:1013A00009F496C048F58932910509F48AC08A97F4
:1013B00009F495C0C11521E5D20708F0BCC0C115DC
:1013C00030E5D30708F014C1C83ED10508F09CC031
:1013D000C03ED10560F5C83AD10508F087C0C53ACE
:1013E000D10508F0FDC0C130D10509F12097F9F011
:1013F000C430D105E0F440C08533910509F45AC0EA
:10140000C997C1F680910E02837089F0C0EED0E0DA
:101410000EC0833E910599F170F4803E910501F173
:10142000823E910539F680910E0282FD21C0CE01E7
:10143000DF91CF910895863E910561F1873E910538
:1014400071F1843E910509F0B5CF80910F0281FFC3
:10145000EECF80910E02C7EED0E084FD0DC0E7CF45
:1014600080910E0280FD12C190910F0290FFDFCF9C
:10147000C3EED0E084FFDBCFD0E0C0E0D8CF8091D6
:101480000E0282FD06C190910F0290FDBFCF84FF36
:10149000CECFF2CF80910E0283FDDDCFC8CF8091F9
:1014A0000E0283FDF9C090910F0291FFF0CFC4EEC0
:1014B000D0E0BDCF80910E0285FFB9CFC9E2D0E068
:1014C000B6CF80910E0285FFB2CFC5E3D0E0AFCF9B
:1014D00080910E0286FFABCFCAE2D0E0A8CF809108
:1014E0000E0286FFA4CFC1E3D0E0A1CFCF3BD10550
:1014F00018F6C85AD0E0CC0FDD1FC25FDE4F09904E
:10150000D881C02DD46493CFC11540E2D40758F4DC
:10151000C11581E0D80708F08ACFC03FD10508F493
:10152000ABCFD06584CFC11590E4D90708F4A4CF20
:10153000DF70D06A7CCFC11525E5D20700F5C11553
:1015400034E5D30708F08AC0C11543E5D40708F095
:1015500071C0C11582E5D80708F467C0CE01837059
:10156000992721E030E002C0220F331F8A95E2F76D
:10157000C695C69580E2C89FE001112452C0C115EE
:1015800099E5D907A8F4C11528E5D20708F06BC082
:10159000C11536E5D30708F06FCF8C2F0E94D7080E
:1015A000C82FD0E0DC2FCC27CC27DF71D0623FCF13
:1015B000C1154AE5D40708F45BC0CE0190568115E9
:1015C000904208F059CF8D2F8F710E94D70890E07C
:1015D000982F882788279F719C012C2BE901E6CF43
:1015E000C55AD0E0C55FDE4FC881D0E0D0641FCFC0
:1015F000CE01E4E096958795EA95E1F783702C2F6C
:1016000026952695237040E2249F90011124382BC3
:101610008C2F8370C1E0D0E002C0CC0FDD1F8A9513
:10162000E2F7C22BD32BDC6802CFDC2FCC27C16FB3
:10163000D06AFDCECE018370992721E030E002C050
:10164000220F331F8A95E2F7C695C69590E2C99F8F
:10165000E0011124C22BD32BDA68E9CEDC2FCC2792
:10166000C46FD06AE4CEDC2FCC27C06FD06ADFCE47
:101670008C2F8F700E94D70834E0D695C7953A9585
:10168000E1F7CF709C2FEC01D069D1CEC9E3D0E057
:10169000CECEC2EED0E0CBCEC6EED0E0C8CEBF926A
:1016A000CF92DF92EF92FF920F931F93CF93DF932E
:1016B0008C01C0906B02D0906C02E0906D02F090B3
:1016C0006E028091FC019091FD01A091FE01B0910C
:1016D000FF01C82AD92AEA2AFB2ACFE1D0E0BC2E92
:1016E000D701C6010C2E04C0B695A795979587958E
:1016F0000A94D2F780FD0EC0219788F7B12C8B2D6C
:10170000DF91CF911F910F91FF90EF90DF90CF90DD
:10171000BF900895B8018C2F0E94C509019761F30D
:10172000EECFCF93DF93EC010E944F0BBE01DF9110
:10173000CF910C94C5090E94910B292F2F7092957F
:101740009F7092509E3078F4E92FF0E0E752FF4D01
:101750000C947420803F19F020F4883E20F481E03E
:101760000895843FE1F380E00895883EC0F3813F0F
:10177000D1F7F5CF822F8695869586950895CF93DC
:10178000DF93CEE7D2E060E0CE010E94A320219655
:10179000C11584E0D807B9F7DF91CF9108951F9361
:1017A000CF93DF93122F8430F8F46530E8F44F3094
:1017B000D8F4C42FD0E0CC0FDD1F9EE1699FC00D8F
:1017C000D11D112496E9899FC00DD11D1124632FCD
:1017D000CE0186960E94A320612FCE018796DF91CD
:1017E000CF911F910C94A320DF91CF911F91089569
:1017F000AF92BF92CF92DF92EF92FF921F93CF935F
:10180000DF938AE7C82E82E0D82ED0E07601C0E0D0
:1018100014C0F50125913491412F6C2F8D2F0E941A
:10182000CF0B82E0A80EB11C1F5F1F3091F78EE135
:10183000E80EF11CCF5FC53019F0570110E0E9CF79
:10184000DF5F86E9C80ED11CD43001F7DF91CF915C
:101850001F91FF90EF90DF90CF90BF90AF900895D1
:10186000CF93DF9300D00F92CDB7DEB790915E0299
:10187000943011F589837B836A839093E9008FEF1D
:101880009091E800815095FD06C095ED9A95F1F78D
:1018900000008111F5CF8091E80085FF0DC050E078
:1018A00040E063E070E0CE0101960E945003809119
:1018B000E8008E778093E8000F900F900F90DF91F3
:1018C000CF910895BC0184E00C94300CBC0183E0FE
:1018D0000C94300C9C0184E08093E9009FEF809190
:1018E000E800915085FD06C085ED8A95F1F700006E
:1018F0009111F5CF8091E80085FF0CC050E040E0E9
:1019000066E070E0C9010E9450038091E8008E7784
:101910008093E8000895CF93DF93EC0180910A0152
:101920008823B1F180910E0287FF32C060E284E02B
:101930008093E9008FEF9091E800815095FD06C0FB
:1019400095ED9A95F1F700008111F5CF8091E800AF
:1019500085FF1BC080910A0170E050E040E08111DA
:1019600004C050E040E068E070E0CE010E94500307
:101970008091E8008E778093E80080E2FE01ACE37E
:10198000B2E001900D928A95E1F7DF91CF91089531
:1019900068E081E0CDCF81E08093E00080E2809339
:1019A000D8001092C9008FE19EE40197F1F700C0C2
:1019B000000087E090EBDC0180936F02909370024F
:1019C000A0937102B093720288E19CE00FB6F89484
:1019D000A895809360000FBE90936000FFCF1F9387
:1019E000CF93DF93182FD0E0C0E0893311F4C0E526
:1019F000D0E0812F0E944A08209731F4812FDF9197
:101A0000CF911F910C9467078FE99FE00197F1F741
:101A100000C000002197F0CF0F931F93CF93DF9367
:101A2000C62FD42F022FFC0182818823A1F060935E
:101A30006A020E949E049093690280936802C770B4
:101A400081E001C0880FCA95EAF7DF91CF911F911D
:101A50000F910C94D20580916A02681335C0809171
:101A60006802909169020E948F04883C910560F59C
:101A700010E21D0FCD17B9F080E28C0F883040F4D2
:101A8000C77081E001C0880FCA95EAF70E94C705B8
:101A9000183048F481E09D2F977001C0880F9A9507
:101AA000EAF70E94D205802F0E94EF0C183098F4BC
:101AB000D77081E001C0880FDA95EAF7DF91CF9106
:101AC0001F910F910C94C705C77081E001C0880F6A
:101AD000CA95EAF7F3CFDF91CF911F910F91089547
:101AE000AF92BF92CF92DF92EF92FF920F931F932C
:101AF000CF93DF930CE311E0C4E0D2E0C12CD12CF2
:101B0000EE24E394F12CF80181918F01F894E82FF1
:101B1000E295EF70F0E021A18F70A70102C0440FA1
:101B2000551F8A95E2F7CA01922F982B91A392A193
:101B30008095892382A3789400C0E1E4F1E030E04D
:101B400020E0B12CA12C4191A42FA295AF70B0E060
:101B500090968C9190E04F7002C0959587954A952C
:101B6000E2F780FD67C0C701022E02C0880F991FEF
:101B70000A94E2F7A82AB92A2F5F3F4F2F30310588
:101B800011F7F801319780810E94C00854E0C51612
:101B900019F080EA8A95F1F788819981A816B9062B
:101BA00009F44BC0B982A88281E0D82AC394229656
:101BB000E5E0CE12A8CFDD2009F441C081E080939A
:101BC00084010E949E0490938301809382018091FE
:101BD0008201909183010E948F040697A0F1809169
:101BE00004029091050290932C0280932B02809125
:101BF00006029091070290932E0280932D0280910D
:101C00000802909109029093300280932F028091F4
:101C10000A0290910B0290933202809331028091DC
:101C20000C0290910D029093340280933302109233
:101C3000840109C090E080E09DCF80E0B6CF809124
:101C400084018111C4CF8D2DDF91CF911F910F9110
:101C5000FF90EF90DF90CF90BF90AF900895AF923C
:101C6000BF92CF92DF92EF92FF920F931F93CF9389
:101C7000DF93EC018AE0A82E2881222309F48CC08E
:101C80002130C9F599818A81913021F422960E94F0
:101C9000EF0C05C0923029F422960E944A08219642
:101CA000EBCF933021F422960E946707F8CF94304F
:101CB00011F02196F4CF229630E020E0AE014F5F84
:101CC0005F4F8053990B8A30910550F021503109B4
:101CD00030F38FE99FE00197F1F700C00000F6CFE5
:101CE000A29EB001A39E700D11249C01260F371FE8
:101CF0008981EA01E3CFE22FF0E0E650FE4FB49095
:101D0000822F86958695869590E0FC01E651FE4FE0
:101D1000E4902770F12C022E02C0F594E7940A9407
:101D2000E2F731E0E322FF24FC01E652FE4FC490CB
:101D3000D12C022E02C0D594C7940A94E2F731E068
:101D4000C322DD24FC01E653FE4F049110E002C0E3
:101D5000159507952A95E2F701701127E114F10412
:101D600019F081EE0E944A08C114D10419F086EEE0
:101D70000E944A088B2D0E94EF0CCD2819F086EEA8
:101D80000E946707EF2819F081EE0E946707012B78
:101D900009F485CF8CE27BCFDF91CF911F910F911A
:101DA000FF90EF90DF90CF90BF90AF9008956BEED3
:101DB0007EEF90E080E00E94C12060E082E090E051
:101DC0000E94A32060E083E090E00E94A320109294
:101DD000FC011092FD011092FE011092FF0160E0E3
:101DE00084E090E00E94A32060E081E290E00E9405
:101DF000A32060E085E090E00E94A32060E086E000
:101E000090E00E94A3206FEF87E090E00E94A32063
:101E100040E050E0BA0188E090E00E94B52060E028
:101E20008DE090E00E94A32040E050E0BA0188E1FC
:101E300090E00E94B52060E087E190E00E94A3203E
:101E400040E050E0BA018CE190E00E94B52060E0F3
:101E500080E290E00E94A32040E050E0BA0188E1D7
:101E600090E00E94B52040E050E0BA018FE090E0A1
:101E70000E94B52040E050E0BA0183E190E00C946C
:101E8000B5201092FA0180910A01E4E6F1E088237E
:101E900059F080910E0287FF07C08EE1DF011D928D
:101EA0008A95E9F70C943B0686E0F8CF1F93CF9311
:101EB000DF93CDB7DEB7AA970FB6F894DEBF0FBE9B
:101EC000CDBF80E692E02091F100DC012D93CD01A1
:101ED000B2E088369B07B9F780916102833009F43C
:101EE00071C0B8F4813009F448C0823009F4B2C03E
:101EF0008091E80083FF3AC1809160029091610275
:101F00009A3008F033C1E92FF0E0E951FF4D0C940D
:101F100074208A3009F48DC08B3009F470C0893088
:101F200039F780916002813219F7809164029091B3
:101F30006502009711F00297D9F68091E800877F3B
:101F40008093E8008091E80082FF37C09091F30011
:101F50008091F200029729F48091F1008B7F81300B
:101F600021F48091F10080933B028091E8008B770F
:101F70008093E8000E947A03BBCF80916002813A8F
:101F800009F0B6CF8091E800877F8093E8008091C8
:101F9000640290916502892B61F460E28CE392E027
:101FA00070E00E942C048091E8008B778093E80019
:101FB0009FCF60E090E080E0F3CF80915E028111DE
:101FC000C1CF96CF80916002813A09F091CF809184
:101FD000640290916502892B09F08ACF8091E80014
:101FE000877F8093E8008091E80080FFFCCF80919C
:101FF0000A018093F1008091E8008E77B9CF80913B
:102000006002813209F074CF809164029091650280
:10201000892B09F06DCF8091E800877F8093E800DD
:102020000E947A038091620280930A010E94410F0C
:102030005FCF80916002813209F05ACF8091E80031
:10204000877F8093E8000E947A03809163028093E7
:102050003A024ECF80916002813A09F049CF8091D7
:10206000E800877F8093E8008091E80080FFFCCF44
:1020700080913A02BECF803899F0823809F076C05C
:10208000809164028F70873008F070C08093E900FF
:102090008091EB0085FB882780F91092E90006C04B
:1020A00080915C0290915D02911182609091E800B4
:1020B000977F9093E8008093F1001092F100809157
:1020C000E8008E77C0C1882309F4ADC1823009F0E1
:1020D0004DC0809162028111B1C1809164028F7004
:1020E0002FEF280F263008F041C08093E90020919F
:1020F000EB0020FFA3C1933031F48091EB008062AC
:102100008093EB009BC19091EB0090619093EB006A
:1021100021E030E001C0220F8A95EAF72093EA001F
:102120001092EA008091EB008860EACF81111EC016
:10213000109162021F778091E3008078812B809359
:10214000E3008091E800877F8093E8000E947A0393
:102150008091E80080FFFCCF8091E300806880934D
:10216000E30082E0111183E080935E028091E80039
:1021700083FF0AC08091E800877F8093E800809108
:10218000EB0080628093EB00AA960FB6F894DEBF56
:102190000FBECDBFDF91CF911F910895805882303F
:1021A00028F720916202309163022C3DE3E03E0764
:1021B000A1F583E08A838AE289834FB7F894DE0130
:1021C000139620E03EE051E2E32FF0E050935700F9
:1021D000E49120FF03C0E295EF703F5FEF708E2F18
:1021E00090E0EA30C0F0C7968D939D932F5F243125
:1021F00059F74FBF8091E800877F8093E8006AE23B
:1022000070E0CE0101960E942C048091E8008B774B
:102210008093E800ABCFC096E7CF809164029091A5
:102220006502432F55274330510509F44AC078F51C
:102230004130510509F485C08BE590E0E2EDF4E012
:102240004230510509F092CF2091E800277F20937A
:10225000E80020916602309167028217930708F424
:102260009C0140E02115310509F070C041116EC09C
:102270008091E80082FDC9CF80915E02882329F217
:10228000853019F28091E80083FFF2CFBECF413252
:10229000510509F447C04232510509F067CF833038
:1022A000910508F063CFFC01EE0FFF1FED5AFE4FC2
:1022B0000190F081E02D805B9E4FDC018C9190E0DD
:1022C0001DC0332721303105E9F02115310579F0A2
:1022D00022303105F9F02330310509F047CFEFE323
:1022E000F5E0E4918E2F90E0EFE3F5E007C0E9E63A
:1022F000F5E0E4918E2F90E0E9E6F5E0009709F42F
:1023000035CFA2CFE5E5F5E0E4918E2F90E0E5E54D
:10231000F5E0F4CFE5E4F5E0E4918E2F90E0E5E41C
:10232000F5E0ECCF8330910508F020CF880F991F9E
:10233000FC01E75AFE4F0190F081E02D89E090E02A
:1023400083CF82E190E0EDE2F5E07ECF80915E0206
:10235000882309F45ACF853009F457CF8091E800DB
:1023600083FD53CF8091E80082FD82CF8091E80009
:1023700080FF78CF9091F3008091F2002115310514
:1023800019F08830910550F041E0089709F040E0DD
:102390008091E8008E778093E80064CF4491409369
:1023A000F1003196215031090196E8CF803809F0CB
:1023B000DDCE8091E800877F8093E80080915F0206
:1023C0008093F1007CCE8111D1CE10916202123047
:1023D00008F0CCCE8091E800877F8093E8001093CE
:1023E0005F020E947A03112311F084E005C08091FE
:1023F000E30087FDFACF81E080935E0242E061EC6A
:1024000081E00E94990342E261EC84E00E9499031A
:1024100042E261EC82E00E94990342E260EC83E0D8
:102420000E949903A3CE80916202813009F09ECE72
:1024300081E0933009F080E080935D021092E90022
:102440008091E800877F8093E8000E947A038ECE17
:102450004F925F926F927F928F929F92AF92BF92B4
:10246000CF92DF92EF92FF920F931F93CF93DF9360
:1024700000D000D00F92CDB7DEB77C01FC01838184
:102480009481892B31F08081918189238F3F09F0DC
:1024900060C50F900F900F900F900F90DF91CF912C
:1024A0001F910F91FF90EF90DF90CF90BF90AF9072
:1024B0009F908F907F906F905F904F9008950E94B3
:1024C0004F0B182F682F89819A810E947C056981A2
:1024D0007A81812F0E94B8098C01F70182818823BB
:1024E00009F42BC5C80182519F45409708F04CC4A0
:1024F0008FEF93E00E9495206EEED62ED00E0EE761
:1025000012E08823C9F08091F701877011F2F7017A
:102510008281882309F4BDCF82E00E94A106B9CF51
:102520000115F4E01F0779F3C8010E94952081117D
:1025300001C0DA940F5F1F4FD110F2CF19821A82B7
:102540001B821C82CC24CA9448012FEF821A920A63
:10255000C8010E94952089831A828823A1F28130C4
:1025600009F047C0580132E0A30EB11CC4010E941B
:102570009520982E8A83882331F2C5010E949520E8
:10258000D82E8FEF890D833068F4580143E0A40EF4
:10259000B11CDB82DD2021F0CE0101960E942F0EBE
:1025A0008501D2CF54E09512FBCF580184E0A80EEC
:1025B000B11CC80103960E949520DD2009F4A3CF29
:1025C000882309F4A0CF8150990BC89E9001C99E21
:1025D000300D1124ED2DE150FF0BCF01820F931F21
:1025E0000197F0F2EFE9FFE03197F1F700C000004A
:1025F000F7CFCE0101960E942F0E5401D1CF81E07A
:102600000E94B9060E9462067ECF81E00E947E068B
:10261000F9CF82E0F5CF82EE0E944A08FFC388E13D
:1026200093E00E94660988E193E00E945109F6C395
:1026300082EE0E944A0887E50E94EF0CEFC386EE07
:102640000E94EF0C88E1F8CFE6E0CE1AD10807C46B
:1026500082EE0E9467071FC48CE20E94EF0C8091FB
:102660008A01882309F417C489E30E94EF0C13C47C
:1026700088E2FBCF033F3CE5130739F1A0F4083DA6
:102680005CE51507F1F0093D8CE5180751F1073DB0
:102690009CE5190709F003C426E241EE61EEC7018B
:1026A0000E940C0D30CF053FECE51E07B1F088F01D
:1026B000063F2CE5120709F0F2C327E245EE66EE6D
:1026C000EECF27E245EE65EEEACF26E241EE60EE80
:1026D000E6CF27E245EE64EEE2CF26E241EE62EE7F
:1026E000DECF28E241E0EFCF80910E02806106301C
:1026F0003CE5130709F489C080910E028860073019
:102700001C4508F482C080910E0280627EC08091D8
:102710000E028D7F0C305CE5150709F476C070F46D
:1027200080910E028C600A309CE5190709F46DC097
:1027300008F47AC080910E028E7F67C080910E02ED
:10274000877F0E30FCE51F0709F45FC080910E0201
:102750008B7F0F301C4508F458C080910E028F7E8D
:1027600054C00B3F3CE5130709F456C030F5033164
:102770005CE5150709F46AC078F401319CE5190796
:1027800009F460C002311C4509F0C7C30E94410F23
:1027900080910E028F7739C00531FCE51F0709F4DF
:1027A0005DC008F471C080910F0281600A3F1C4532
:1027B00009F0B3C380930F02B0C30F3F4CE5140779
:1027C00009F448C070F40D3F8CE5180799F1809129
:1027D0000F028E7F0E3F1C4568F380910F028360CD
:1027E000E9CF0130EDE51E0709F457C008F442C0F7
:1027F00060E002301D4509F090C38EE090E00E9439
:10280000A3208BC380910E02816080930E0285C34A
:1028100080910E028460F9CF80910F028260CACF4E
:1028200080910E028064F1CF0E94410F80910E02D0
:102830008068EBCF80910F028D7FBCCF80910E021C
:102840008F7DE3CF80910E028F7BDFCF80910E02D0
:10285000837FDBCF80910F028C7FACCF80910E0203
:1028600082FB992790F921E0922790FB82F990FB57
:1028700083F9CBCF80910F02982F909591708E7F26
:10288000892B90FB81F996CF0E94410F90910E0207
:10289000892F97FB87F98058B8CF61E0AECF06311A
:1028A0003CE5130709F073C38091FA018A7A91E03D
:1028B00009F490E090938B0169E2811165E382E66F
:1028C00091E00E94D4040E940F051DCE0E94410F8A
:1028D0004FEF54E38CE0415050408040E1F700C09E
:1028E00000000E94CB0C0E94D70E0DCEC8010E94A2
:1028F0005405D82E63C3212F2F70A22E107F19F0FC
:10290000A29490EFA922DD20C9F0AA2069F080E20C
:10291000800F883010F081100BC08091FA01A82A36
:10292000A092FA010E940F05802F0E944A0818C049
:102930008091F901A82AA092F901F4CF802F0E947A
:102940006707AA2069F0A094005E083010F081109B
:1029500028C08091FA01A822A092FA010E940F05D6
:102960002B2D2850330B2430310510F40E9408061B
:10297000CC2009F48ECD8091F70180FD8ACDF7013E
:1029800012828595859585950E94B906C7010E949A
:1029900028128091F7018595859585950E947E0680
:1029A00078CD8091F901A822A092F901D7CF312FDB
:1029B0003F70932E107F103219F0929480EF98227E
:1029C000882071F041E0841661F1DD20B9F1AA2080
:1029D00071F1F701858180FFA7CF8F70858327C0B4
:1029E000DD2091F09091FB01892F8929A11003C06E
:1029F0000E94D205B5CF51E0A512FACF981709F47D
:102A0000AFCF8093FB01ACCFA11006C00E94090597
:102A1000892D0E94C705A4CF81E0A81609F4A0CF94
:102A2000F5CFDD2031F095E09A1508F499CF892D86
:102A3000DFCFE4E0EA1508F493CFEACFAA2041F310
:102A4000F9E38F1209C02FEF37EE43E021503040F9
:102A50004040E1F700C00000802F0E94670780CF50
:102A6000812F86958695837061F0813009F078CF4B
:102A7000C8019370D11002C090E080E00E94DC0594
:102A80006FCFC8019370D11002C090E080E00E9427
:102A9000F20566CF802FDD2039F00E94E2070E9408
:102AA00014060E9414065CCF0E94E406FACF812F20
:102AB000837009F066C0D11053CF802F8295869520
:102AC0008770880F880F602F6F70462E512C712CE5
:102AD000612C082E04C0440C551C661C771C0A94FB
:102AE000D2F740E050E0BA0104FF0FC04FE050E0E1
:102AF00060E070E004C0440F551F661F771F8A9581
:102B0000D2F74095509560957095812F8695869562
:102B10008370823019F1D8F40091FC011091FD010D
:102B20002091FE013091FF01813069F0442955293F
:102B300066297729CB01BA0160237123822393236D
:102B40000E94DA060DCF402A512A622A732ACB014D
:102B5000BA016429752986299729F2CF4429552974
:102B6000662977290091FC011091FD012091FE0159
:102B70003091FF01CB01BA0160277127822793278B
:102B8000DFCF8695DD2011F0812F8170882309F435
:102B9000E7CE802F829586958770880F880F602FEB
:102BA0006F70462E512C712C612C082E04C0440CE1
:102BB000551C661C771C0A94D2F740E050E0BA011D
:102BC00004FF0FC04FE050E060E070E004C0440F2D
:102BD000551F661F771F8A95D2F7409550956095CF
:102BE0007095812F869586958370823019F1D8F47F
:102BF00000916B0210916C0220916D0230916E0277
:102C0000813069F04429552966297729CB01BA0119
:102C100060237123822393230E945806A1CE402A69
:102C2000512A622A732ACB01BA016429752986299F
:102C30009729F2CF442955296629772900916B02FB
:102C400010916C0220916D0230916E02CB01BA019D
:102C50006027712782279327DFCF1F70DD2029F09F
:102C6000812F0E94B906802FC3CE802F0E94C705F6
:102C7000812F0E947E0674CE802F52EF851609F4B4
:102C800050C0581578F090EF891619F1E1EF8E16C3
:102C900009F43FC0DD2009F467C0A11045CE812FA3
:102CA0008F713CC0F3EF8F1609F440C024EF8212FD
:102CB000F1CFDD2009F44DC01F71812F0E94B906AC
:102CC00058E0159FC001112483608093F701812F84
:102CD00025C0DD20C9F034E03A1508F441CE1F715B
:102CE00061E070E080E090E004C0660F771F881F0D
:102CF000991F1A95D2F700916B0210916C022091E6
:102D00006D0230916E02A4CF45E04A1508F428CE3A
:102D1000E6CF812F8F71DD2009F4ABCF0E94B90679
:102D20001FCE812F8F71DD20C9F3A3CF60E070E04B
:102D3000CB01DD2009F470CF1F7161E070E080E00D
:102D400090E004C0660F771F881F991F1A95D2F76D
:102D500063CF81E00E94A10681E08A1508F000CED1
:102D600082E00E94A106FCCDAA2059F0893309F027
:102D700073CE9FEFE7EEF3E09150E040F040E1F7D3
:102D800069CE812F8F7175CF0031FFE51F0709F4E0
:102D900036CC01312FE5120709F43BCCC801815E26
:102DA0009C45059740F46FE1600F609300028CE052
:102DB00090E00E94A32017FF5DCCF7018281882359
:102DC00009F46DC0E0911002F091110280E030979B
:102DD00021F00190F081E02D099586958170809316
:102DE0008A0190910002913029F4882319F089E337
:102DF0000E94EF0C8091FA01809389011092FA01F0
:102E000080910002813009F40ACC882309F403CCB4
:102E1000823009F40DCC843009F411CC8FE39CE9A5
:102E20000197F1F700C000004801E89497F85CE0D2
:102E3000A52EB12CC4010A2C02C0969587950A9440
:102E4000E2F78F7047E2C42ED12C882341F0C82EC0
:102E5000D12C8A3008F0F8CB9DE1C90ED11CC601F7
:102E60000E946609C6010E945109F4E0AF1AB10838
:102E70002CEFA2162FEFB206E9F680910002813006
:102E800009F4EACB882309F4E3CB823009F4E0CBE0
:102E9000843009F4EDCB809189018093FA01F70128
:102EA0008281882309F466C010926A020230FCE530
:102EB0001F0708F4F4CC06312CE5120738F098010E
:102EC0002A5F3C452930310508F0E9CC0E947B0996
:102ED00090930F0280930E0200313CE5130709F432
:102EE000ADCC08F03ECC08305CE5150709F498CC71
:102EF00008F00DCC04309CE5190709F489CC08F0E2
:102F0000F3CB0230FCE51F0709F47CCC80910E0264
:102F1000826003301C4509F478CC60910E02109158
:102F20000F0284E090E00E94A320612F81E290E0F4
:102F30000E94A3200E94410FE6CA00313FE513071B
:102F400009F463CB01314FE5140709F034CF82E077
:102F50005DCB85E0DE01119601900D928A95E1F737
:102F6000F701228189819A812111A9CA0E94540501
:102F7000182FADCA06311C4599F480918B0169E286
:102F8000811165E382E691E00E94AA049CCC0115C0
:102F90002CE5120709F49ACC0E3D1C4509F4A3CC8C
:102FA000F70100811181882309F4A0CCC8010E9497
:102FB0004F0BD82E682FC8010E947C05B8018D2DBB
:102FC0000E94C5098C01882EF701D280A580A294A9
:102FD0003FE0A3228091F7018770A1F0CD2CDD2086
:102FE00091F0812F807F803421F080E2800F883043
:102FF00048F082E00E94A1068091F7018770CC24FE
:10300000C3948111C12CB12EB2942FE0B222FBE007
:10301000FB1508F4A5CCEB2DF0E0EF50FF4D0C9420
:1030200074201F93CF93DF9380919201807FA9F446
:1030300080918F01882389F08091C401D091930100
:1030400060918D0170918E01A0919001B0919101DC
:10305000C62FC72316E0D81304C0DF91CF911F916C
:10306000089590E0109711F0CF3F19F40196877002
:10307000F2CF189F9001199F300D1124F901EC56E1
:10308000FE4F41814713F2CF40814613EFCF42817B
:103090004111ECCF438154814A1B5B0B483C5105E5
:1030A00028F7809192018F70806180939201F901DD
:1030B000E756FE4F80818F70806180838DE891E0BC
:1030C0000E942812DF91CF911F910C94A805AF9216
:1030D000BF92CF92DF92EF92FF920F931F93CF9305
:1030E000DF93CDB7DEB761970FB6F894DEBF0FBEA2
:1030F000CDBF8C0185E0F801DE011D9601900D9297
:103100008A95E1F7F80180819181E2802DE8A22E75
:1031100021E0B22E609190017091910161157105CD
:1031200009F43EC130918D0140918E01232F24235B
:103130002F3F09F435C1C380D480F0908F01F60190
:10314000E61BF70BFF2009F4FBC020919201522FE0
:10315000507FE83CF10508F0BBC0511178C0FE2C4F
:10316000491321C038131FC0E1101DC02F7020610A
:1031700020939201C5010E94281280919201F801CA
:1031800085838F2D61960FB6F894DEBF0FBECDBF3D
:10319000DF91CF911F910F91FF90EF90DF90CF9033
:1031A000BF90AF900895CD2829F0282F29232F3FD5
:1031B00009F014C120E0F22FF170DF2E20FF3DC096
:1031C0002091C4014091930156E0241315C08D87CE
:1031D0009E878D859E850E94910B292F22952F70A9
:1031E0002230F8F0243020F59F70F9F0F801958135
:1031F000907FD9F4D12C1FC030E0529FF001539F33
:10320000F00D1124EC56FE4F6181961306C06081CB
:10321000861303C06281E61210C02F5F3F4F2770F4
:10322000D4CF9F7011F0882329F3805E883010F38B
:10323000C8010E942812FD2CA4CFEE2009F4A1CFD2
:1032400080919201816080939201F12C9ACF491371
:1032500012C0381310C0E1100EC0F8012583C80158
:103260000E94281286E0F801ADE8B1E001900D92CD
:103270008A95E1F786CF8D879E878D859E850E94F2
:103280009B0B882309F1EE20F9F0809192018032A6
:1032900070F020918D0130918E0138872F8319862F
:1032A000DB86CA868C87CE0107960E94281286E0AC
:1032B000F801ADE8B1E001900D928A95E1F70E9426
:1032C0001118FF24F3945DCFC8010E942812F9CF92
:1032D00051110AC08DE891E00E94281286E0F501A4
:1032E00011928A95E9F7B1CF49130FC038130DC079
:1032F000E1100BC0F8012583C8010E94281286E066
:10330000F50111928A95E9F73CCF8D879E878D85CF
:103310009E850E949B0B8823B9F2EE20A9F2809132
:103320009201803220F220918D0130918E013A83FA
:1033300029831B82DD82CC828E83CE010196B5CF9C
:10334000E83CF105E0F6FE2CEE2009F4BDCF491370
:1033500016C0381314C08091920180FD83CF982F3E
:10336000907F09F47FCFF8018583903F09F477CFF0
:10337000982F907F905F8F70892B858370CF8D877A
:103380009E878D859E850E949B0B811190CF809199
:103390009201816080939201C8010E942812F1CEAF
:1033A000EE2009F491CF8D879E878D859E850E94A2
:1033B0009B0BF82E882309F487CF86E0F801ADE84F
:1033C000B1E001900D928A95E1F780918D01909185
:1033D0008E010E94910B0E941118D3CE21E02E2560
:1033E000EACE1F93CF93DF93CDB7DEB767970FB6C3
:1033F000F894DEBF0FBECDBF342F4B8B252F5C8BD7
:103400006D8B7E8B8F8B8E899F8961111092F90154
:103410001A8A198A3D872E876F87998B888B86E059
:10342000FE013D96DE01179601900D928A95E1F717
:10343000CE0107960E946718882389F016E08091D4
:10344000C40190919301891349C067960FB6F8940F
:10345000DEBF0FBECDBFDF91CF911F91089586E0F3
:10346000FE013796DE01119601900D928A95E1F7E3
:103470008A859B85892B11F38F81988589238F3FBE
:10348000E9F22091930130E0C901019687709927F4
:103490004091C4014817190671F40E94410F10921F
:1034A00093011092C40186E0EDE8F1E0DF011D9286
:1034B0008A95E9F7C3CF96E0929FD001939FB00D14
:1034C0001124AC56BE4FFE01319601900D929A9593
:1034D000E1F7809393010E94A805B0CF819FC001BE
:1034E00011248C569E4F0E946718882309F4ADCF93
:1034F0008091C40190E00196877099278093C40160
:103500009ECF1F920F920FB60F9211242F933F93CD
:103510004F935F936F937F938F939F93AF93BF93DB
:10352000CF93DF93EF93FF93D091E900DF70809109
:10353000EC00C82FC17080FDC0E81092E9008091B6
:10354000F000877F8093F00078940E94560F1092CD
:10355000E9008091F00088608093F000CD2BCF705F
:10356000C093E900FF91EF91DF91CF91BF91AF91AF
:103570009F918F917F916F915F914F913F912F918B
:103580000F900FBE0F901F9018951F920F920FB6BD
:103590000F9211242F933F934F935F936F937F93D9
:1035A0008F939F93AF93BF93EF93FF938091E1002D
:1035B00082FF09C08091E20082FF05C08091E10096
:1035C0008B7F8093E1008091DA0080FF24C080919E
:1035D000D80080FF20C08091DA008E7F8093DA00CF
:1035E0008091D90080FF9BC080E189BD82E189BDC7
:1035F00009B400FEFDCF81E080935E028091390224
:10360000811109C00E9400030E94CB038091E20057
:1036100084608093E2008091E10080FF17C0809178
:10362000E20080FF13C08091E2008E7F8093E20071
:103630008091E20080618093E2008091D8008062F6
:103640008093D80019BC85E080935E028091E100F0
:1036500084FF29C08091E20084FF25C080E189BDFC
:1036600082E189BD89B5982F917080FFFBCF809151
:10367000D8008F7D8093D8008091E1008F7E809369
:10368000E1008091E2008F7E8093E2008091E20071
:1036900081608093E20080915F02882309F445C035
:1036A00084E080935E028091E10083FF27C08091D7
:1036B000E20083FF23C08091E100877F8093E100D7
:1036C00082E080935E0210925F028091E1008E7F23
:1036D0008093E1008091E2008E7F8093E2008091F0
:1036E000E20080618093E20042E060E080E00E94BE
:1036F00099038091F00088608093F000FF91EF9132
:10370000BF91AF919F918F917F916F915F914F91F9
:103710003F912F910F900FBE0F901F90189519BCDD
:1037200010925E021092390276CF8091E30087FDFD
:1037300093E090935E02B7CFCDB7DEB7AA970FB6EE
:10374000F894DEBF0FBECDBF84B7877F84BF0FB6AE
:10375000F894A89580916000886180936000109231
:1037600060000FBE80E890E00FB6F894809361008F
:10377000909361000FBE85B7806885BF85B780686C
:1037800085BF8AE894E090936101809360010E9474
:1037900000030E94CB038091E20084608093E200EA
:1037A000789480915E028823A1F01091E9001F7047
:1037B0009091EC00892F817090FD80E8182B109279
:1037C000E9008091E80083FD0E94560F1F7010935E
:1037D000E90082E084BD93E095BD9AEF97BD8093A8
:1037E0006E0084E30E94C00887E90E94C00886E951
:1037F0000E94C00884E90E94C00886EC0E94C008AC
:1038000001E411E0F0E5EF2EF1E0FF2EF8018191E7
:103810008F010E94C008E016F106C1F71092050260
:103820001092040210922C0210922B0210920702A6
:103830001092060210922E0210922D02109209028E
:10384000109208021092300210922F0210920B0276
:1038500010920A02109232021092310210920D025E
:1038600010920C0210923402109233020E94700DDA
:103870008FE39CE90197F1F700C000000E94700DF2
:1038800080912B0280FF17C06FEF82E290E00E94D0
:10389000A3206FEF83E290E00E94A3206FEF84E209
:1038A00090E00E94A3206FEF7FEF90E080E00E9405
:1038B000C1200E94CB0C90E080E00E949D208B3EB6
:1038C0009E4F11F00E94D70E8CE090E00E94952050
:1038D00090E0B0E0A0E08093000290930102A093FA
:1038E0000202B093030282E290E00E9495208132AE
:1038F00009F06FC383E290E00E949520863009F0C2
:1039000068C384E290E00E949520813109F061C390
:1039100090E080E00E949D208B3E9E4F11F00E941F
:10392000D70E82E090E00E949520809320020E94B2
:103930007B0990930F0280930E0283E090E00E9437
:103940009520682F70E090E080E00E94DA0680E029
:1039500091E0909311028093100258E1E52EF12C32
:1039600060E4862E75E3C72E72E0D72EE0E19E2E2E
:1039700080915E0212E1853009F47BC10E94700DD6
:10398000882359F08FB7F894409135025091360250
:1039900060913702709138028FBFABE2B2E0E1E292
:1039A000F2E010E000E0702F8D919D912191319116
:1039B0002817390709F46DC12827392760E0AA24A0
:1039C000A394B12CA9014A215B21452B09F45BC1C9
:1039D00069A37AA39C012A213B2191E0232B09F4BE
:1039E00090E09BA30E949E048160782F9DA38CA3EE
:1039F00049A15AA16BA18DA10E94F119000F111FBD
:103A0000F801EF5DFD4F80819181A826B926B18232
:103A1000A08286E0E9E1F2E0DE01119601900D92CC
:103A20008A95E1F7B0901B02A0901C0210911D0234
:103A300000911E0210921B0210921C0210921D0295
:103A400010921E028B2D8A2909F448C0809117021A
:103A5000909118020E948F049C0190911602992364
:103A600009F4DEC223333105C8F19F3F19F09F5F8F
:103A700090931602BB2059F00E94C2079FEF1B14BF
:103A80000CF491E0899F802D112480931B02AA20C1
:103A900059F00E94C2079FEF1A140CF491E0899F1D
:103AA000802D112480931C0230911B023323B1F02E
:103AB00020911C02222391F045EB3403C001112414
:103AC000992309F4FDC090931B0245EB2403900158
:103AD0001124332309F4F8C030931C02812F802B6A
:103AE00009F448C080911402909115020E948F043D
:103AF0009C0190911302992309F48DC2253631055A
:103B0000C8F19F3F19F09F5F90931302112359F062
:103B10000E94A0079FEF11160CF491E0899F802D61
:103B2000112480931D02002359F00E94A0079FEFEB
:103B300010160CF491E0899F802D112480931E02B1
:103B400030911D023323B1F020911E02222391F007
:103B500045EB3403C0011124992309F4B9C09093B3
:103B60001D0245EB240390011124332309F4B4C052
:103B700030931E0280911B0290911C02892B909120
:103B80001D02892B90911E02892B11F00E941406B0
:103B900086E0FE013196A9E1B2E001900D928A958E
:103BA000E1F70E94080690911F02891721F00E94F8
:103BB000080680931F0280915E02843009F0D8CEFF
:103BC00083E08093E9008091E80082FFD1CE80916C
:103BD000E80090E085FF06C00E941F03882309F4D7
:103BE0007FC091E08091E8008B778093E800992373
:103BF00009F4BECEE981E150E33108F00EC1F0E0F6
:103C0000E350FF4D0C94742080915E02843009F1E2
:103C1000109212020FB6F894A895E09260000FBEC1
:103C20008092600083B7817F846083BF83B78160A7
:103C300083BF7894889583B78E7F83BF0FB6F8943F
:103C4000A895809160008861809360001092600068
:103C50000FBE80915D02882361F00E94700DEBE23F
:103C6000F2E081919191892B09F09DC1CE16DF067A
:103C7000C1F780915E02853009F4C6CF0E94410FE2
:103C80000E9408067BCE6F5FAA0CBB1C6F3009F048
:103C900099CE0F5F1F4F0530110509F084CE8FEFCD
:103CA0008EA38FA318A60E949E048160782F9AA7E6
:103CB00089A74EA15FA168A58AA50E94F119A9CE86
:103CC00081E080931B0201CF81E080931C0206CF2C
:103CD00081E080931D0245CF81E080931E024ACF90
:103CE00000E210E0CE0101965C018091E80085FDC4
:103CF0000AC08091E8008B778093E8000E941F0340
:103D0000882399F36ECF8091F100F50181935F01D3
:103D10000150110951F765CF1A8289E08B831AC0CF
:103D20008A81823009F46EC18330D9F1813009F083
:103D300074C02FB7F894609135027091360280916B
:103D40003702909138022FBF0E947A206B837C83C8
:103D50008D839E8380915E02843009F009CE10919C
:103D6000E9001F709091EC00892F817090FD80E830
:103D7000182B82E08093E9008091E80080FF0DC05D
:103D800050E040E060E270E0CE0101960E945003F6
:103D90008091E8008E778093E8001F701093E9000F
:103DA000E7CD80912B0290912C02982789279827A4
:103DB0009C838B8380912D0290912E0298278927D6
:103DC00098279E838D8380912F02909130029827AF
:103DD0008927982798878F838091310290913202AA
:103DE0009827892798279A8789878091330290910D
:103DF00034029827892798279C878B87ABCF8A81A5
:103E0000823059F46B817C818D819E810E947A2061
:103E100085E290E00E94A3209DCF8FEF89839ACF07
:103E20004C816B818A810E9489099827892798276C
:103E30009E838D838FCF2D813E813227232732278A
:103E40004C816B818A810E94CF0B84CF0E94F80B3A
:103E500081CF9A827FCF81E08A8382E85FCF0C8115
:103E600010E00D31110508F075CFAA80BB80BA248F
:103E7000AB24BA24CE0101963C01080F191FC501DD
:103E800082589D4F6016710609F464CFF2E8AF16B0
:103E9000F1E0BF0658F40E949520F3018483FFEF00
:103EA000AF1ABF0A2FEF621A720AE9CFF301148228
:103EB000F6CFAC80B12C4DE1A416B10408F04ACF86
:103EC0000A811B81102701271027CE0101963C0192
:103ED000A00EB11EC80182589D4F0A151B0509F49A
:103EE00039CF0238E1E01E0720F4F30164810E941B
:103EF000A320FFEF6F1A7F0A0F5F1F4FEBCF0E94C7
:103F0000BF0B28CF84E08A8325CF0C8110E00D31D0
:103F1000110508F01FCFAA80BB80BA24AB24BA24B5
:103F2000CE0101963C01080F191FC50186960615A2
:103F3000170509F40FCFF8E5AF16F2E0BF0658F405
:103F40000E949520F3018483FFEFAF1ABF0A2FEF81
:103F5000621A720AEACFF3011482F6CFAC80B12C58
:103F60004DE1A416B10408F0F5CE0A811B8110279B
:103F700001271027CE0101963C01A00EB11EC801F9
:103F800086960A151B0509F4E5CE0835E2E01E0702
:103F900020F4F30164810E94A320FFEF6F1A7F0ACF
:103FA0000F5F1F4FECCF99BC19BD09B400FEFDCFC8
:103FB0008091D8008F7D8093D8008091E00082604E
:103FC0008093E0008091E00081FDFCCF0E94410FD2
:103FD00050CE60E085E290E00E94A3200E94F80BA2
:103FE0000E94BF0B61E282E290E00E94A32066E0A3
:103FF00083E290E00E94A32061E184E290E00E94CD
:10400000A32086CC85E290E00E9495201B821C8232
:104010001D828E839FCE2D32314008F074CDAACD03
:104020002D32314008F023CD59CD78941F921FB620
:104030001F9211248F939F93AF93BF93809135026A
:1040400090913602A0913702B09138020196A11DDD
:10405000B11D8093350290933602A0933702B0933E
:104060003802BF91AF919F918F911F901FBE1F90FB
:1040700018951F921FB61F9211248F939F93AF9391
:10408000BF9380911202811113C0809135029091EB
:104090003602A0913702B09138024196A11DB11DA0
:1040A0008093350290933602A0933702B093380282
:1040B000BF91AF919F918F911F901FBE1F90189538
:1040C00097FB072E16F4009407D077FD09D00E94C5
:1040D000812007FC05D03EF4909581959F4F08956F
:1040E000709561957F4F0895EE0FFF1F0590F49135
:1040F000E02D09946927962769277827872778274D
:104100000895AA1BBB1B51E107C0AA1FBB1FA6171E
:10411000B70710F0A61BB70B881F991F5A95A9F770
:1041200080959095BC01CD010895F999FECF92BD7F
:1041300081BDF89A992780B50895A8E1B0E042E0E2
:1041400050E00C94C920262FF999FECF92BD81BD75
:10415000F89A019700B4021639F01FBA20BD0FB6C5
:10416000F894FA9AF99A0FBE08950396272F0E94A1
:10417000A4200E94A320252F0E94A420242F0C9469
:10418000A4200196272F0E94A4200C94A320DC01D8
:10419000CB01FC01F999FECF06C0F2BDE1BDF89A52
:1041A000319600B40D9241505040B8F70895F894FC
:1041B000FFCFAA0BAA0BB30BB30BB50BB30BB30B0F
:1041C000B30BAA0BAA0BBA0BB30BB30BBA0B3B1076
:1041D0006310B6106310B6109610CE10B610D6113C
:1041E000E3117B147B14D714D71430154A15B0147F
:1041F000B01457152D163C163C168C1E901EFF1E33
:10420000101F1B1F261F0D1F0D1F0D1F0D1F0D1F24
:10421000291F2B1F2F1F591F7F1F821F851FAE1F96
:104220008C048B0C6A0C660C620C01818283E200A8
:10423000E900EA00B500B600B700CD008301CC006C
:104240008A019201940121022302240225022602FE
:1042500027022A02B300B4006F00700034979694CE
:10426000C6929190939535F0366667F1F4F5F6F7BE
:104270004022BC8A016801AC00E404FD041D050075
:00000001FF
